{
  "address": "0x12e4bEC0dAdC52CeDD0b629DFD23e644F0Cd0Cc7",
  "abi": [
    {
      "inputs": [
        {
          "internalType": "string",
          "name": "name_",
          "type": "string"
        }
      ],
      "stateMutability": "nonpayable",
      "type": "constructor"
    },
    {
      "anonymous": false,
      "inputs": [
        {
          "indexed": true,
          "internalType": "address",
          "name": "previousOwner",
          "type": "address"
        },
        {
          "indexed": true,
          "internalType": "address",
          "name": "newOwner",
          "type": "address"
        }
      ],
      "name": "OwnershipTransferred",
      "type": "event"
    },
    {
      "inputs": [],
      "name": "ADVISOR_PERCENT",
      "outputs": [
        {
          "internalType": "uint8",
          "name": "",
          "type": "uint8"
        }
      ],
      "stateMutability": "view",
      "type": "function"
    },
    {
      "inputs": [],
      "name": "SERVICE_PERCENT",
      "outputs": [
        {
          "internalType": "uint8",
          "name": "",
          "type": "uint8"
        }
      ],
      "stateMutability": "view",
      "type": "function"
    },
    {
      "inputs": [
        {
          "internalType": "uint256",
          "name": "",
          "type": "uint256"
        }
      ],
      "name": "advisors",
      "outputs": [
        {
          "internalType": "address",
          "name": "",
          "type": "address"
        }
      ],
      "stateMutability": "view",
      "type": "function"
    },
    {
      "inputs": [
        {
          "internalType": "address",
          "name": "account",
          "type": "address"
        }
      ],
      "name": "claim",
      "outputs": [],
      "stateMutability": "nonpayable",
      "type": "function"
    },
    {
      "inputs": [],
      "name": "name",
      "outputs": [
        {
          "internalType": "string",
          "name": "",
          "type": "string"
        }
      ],
      "stateMutability": "view",
      "type": "function"
    },
    {
      "inputs": [],
      "name": "owner",
      "outputs": [
        {
          "internalType": "address",
          "name": "",
          "type": "address"
        }
      ],
      "stateMutability": "view",
      "type": "function"
    },
    {
      "inputs": [],
      "name": "raise",
      "outputs": [],
      "stateMutability": "payable",
      "type": "function"
    },
    {
      "inputs": [],
      "name": "renounceOwnership",
      "outputs": [],
      "stateMutability": "nonpayable",
      "type": "function"
    },
    {
      "inputs": [
        {
          "internalType": "uint256",
          "name": "",
          "type": "uint256"
        }
      ],
      "name": "services",
      "outputs": [
        {
          "internalType": "address",
          "name": "",
          "type": "address"
        }
      ],
      "stateMutability": "view",
      "type": "function"
    },
    {
      "inputs": [
        {
          "internalType": "address[]",
          "name": "advisors_",
          "type": "address[]"
        }
      ],
      "name": "setAdvisors",
      "outputs": [],
      "stateMutability": "nonpayable",
      "type": "function"
    },
    {
      "inputs": [
        {
          "internalType": "address[]",
          "name": "services_",
          "type": "address[]"
        }
      ],
      "name": "setServices",
      "outputs": [],
      "stateMutability": "nonpayable",
      "type": "function"
    },
    {
      "inputs": [
        {
          "internalType": "address",
          "name": "newOwner",
          "type": "address"
        }
      ],
      "name": "transferOwnership",
      "outputs": [],
      "stateMutability": "nonpayable",
      "type": "function"
    }
  ],
  "transactionHash": "0xd28e6af7456a9c48b29fa0200436d75d80ad2be8e90b01bce0ff8fc04ebb5b70",
  "args": [
    "Utiltybia Treasury"
  ],
  "solcInputHash": "05e325464be5149757fd9a6e48854e6e",
  "bytecode": "0x60806040523480156200001157600080fd5b5060405162000d5138038062000d51833981016040819052620000349162000138565b600080546001600160a01b031916339081178255604051909182917f8be0079c531659141344cd1fd0a4f28419497f9722a3daafe3b4186f6b6457e0908290a35080516200008a90600190602084019062000092565b505062000261565b828054620000a0906200020e565b90600052602060002090601f016020900481019282620000c457600085556200010f565b82601f10620000df57805160ff19168380011785556200010f565b828001600101855582156200010f579182015b828111156200010f578251825591602001919060010190620000f2565b506200011d92915062000121565b5090565b5b808211156200011d576000815560010162000122565b600060208083850312156200014b578182fd5b82516001600160401b038082111562000162578384fd5b818501915085601f83011262000176578384fd5b8151818111156200018b576200018b6200024b565b604051601f8201601f19908116603f01168101908382118183101715620001b657620001b66200024b565b816040528281528886848701011115620001ce578687fd5b8693505b82841015620001f15784840186015181850187015292850192620001d2565b828411156200020257868684830101525b98975050505050505050565b600181811c908216806200022357607f821691505b602082108114156200024557634e487b7160e01b600052602260045260246000fd5b50919050565b634e487b7160e01b600052604160045260246000fd5b610ae080620002716000396000f3fe6080604052600436106100a75760003560e01c80638da5cb5b116100645780638da5cb5b1461016a578063b361e1981461019c578063c22c4f43146101a4578063d42f5f3c146101c4578063e83d1451146101e4578063f2fde38b1461020457600080fd5b806306fdde03146100ac5780631e83409a146100d7578063212bda4f146100f957806331f836001461012057806357c00b1d14610140578063715018a614610155575b600080fd5b3480156100b857600080fd5b506100c1610224565b6040516100ce9190610943565b60405180910390f35b3480156100e357600080fd5b506100f76100f236600461088d565b6102b2565b005b34801561010557600080fd5b5061010e600a81565b60405160ff90911681526020016100ce565b34801561012c57600080fd5b506100f761013b3660046108bb565b610365565b34801561014c57600080fd5b5061010e601481565b34801561016157600080fd5b506100f76103e5565b34801561017657600080fd5b506000546001600160a01b03165b6040516001600160a01b0390911681526020016100ce565b6100f7610459565b3480156101b057600080fd5b506101846101bf36600461092b565b610676565b3480156101d057600080fd5b506101846101df36600461092b565b6106a0565b3480156101f057600080fd5b506100f76101ff3660046108bb565b6106b0565b34801561021057600080fd5b506100f761021f36600461088d565b61072b565b6001805461023190610a39565b80601f016020809104026020016040519081016040528092919081815260200182805461025d90610a39565b80156102aa5780601f1061027f576101008083540402835291602001916102aa565b820191906000526020600020905b81548152906001019060200180831161028d57829003601f168201915b505050505081565b6001600160a01b03811660009081526002602052604090205461030a5760405162461bcd60e51b815260206004820152600b60248201526a46756e647320656d70747960a81b60448201526064015b60405180910390fd5b6001600160a01b03811660008181526002602052604080822054905181156108fc0292818181858888f1935050505015801561034a573d6000803e3d6000fd5b506001600160a01b0316600090815260026020526040812055565b6000546001600160a01b0316331461038f5760405162461bcd60e51b815260040161030190610996565b60038111156103d45760405162461bcd60e51b815260206004820152601160248201527041647669736f727320746f6f206d616e7960781b6044820152606401610301565b6103e060038383610815565b505050565b6000546001600160a01b0316331461040f5760405162461bcd60e51b815260040161030190610996565b600080546040516001600160a01b03909116907f8be0079c531659141344cd1fd0a4f28419497f9722a3daafe3b4186f6b6457e0908390a3600080546001600160a01b0319169055565b6000341161049a5760405162461bcd60e51b815260206004820152600e60248201526d105b5bdd5b9d081a5b9d985b1a5960921b6044820152606401610301565b34600060646104aa601484610a03565b6104b491906109e3565b9050600060646104c5600a85610a03565b6104cf91906109e3565b6003549091501561057c576003546104e790836109e3565b915060005b60035460ff8216101561057a576105038385610a22565b9350826002600060038460ff168154811061052e57634e487b7160e01b600052603260045260246000fd5b60009182526020808320909101546001600160a01b03168352820192909252604001812080549091906105629084906109cb565b9091555081905061057281610a74565b9150506104ec565b505b600454156106265760045461059190826109e3565b905060005b60045460ff82161015610624576105ad8285610a22565b9350816002600060048460ff16815481106105d857634e487b7160e01b600052603260045260246000fd5b60009182526020808320909101546001600160a01b031683528201929092526040018120805490919061060c9084906109cb565b9091555081905061061c81610a74565b915050610596565b505b826002600061063d6000546001600160a01b031690565b6001600160a01b03166001600160a01b03168152602001908152602001600020600082825461066c91906109cb565b9091555050505050565b6004818154811061068657600080fd5b6000918252602090912001546001600160a01b0316905081565b6003818154811061068657600080fd5b6000546001600160a01b031633146106da5760405162461bcd60e51b815260040161030190610996565b600581111561071f5760405162461bcd60e51b8152602060048201526011602482015270536572766963657320746f6f206d616e7960781b6044820152606401610301565b6103e060048383610815565b6000546001600160a01b031633146107555760405162461bcd60e51b815260040161030190610996565b6001600160a01b0381166107ba5760405162461bcd60e51b815260206004820152602660248201527f4f776e61626c653a206e6577206f776e657220697320746865207a65726f206160448201526564647265737360d01b6064820152608401610301565b600080546040516001600160a01b03808516939216917f8be0079c531659141344cd1fd0a4f28419497f9722a3daafe3b4186f6b6457e091a3600080546001600160a01b0319166001600160a01b0392909216919091179055565b828054828255906000526020600020908101928215610868579160200282015b828111156108685781546001600160a01b0319166001600160a01b03843516178255602090920191600190910190610835565b50610874929150610878565b5090565b5b808211156108745760008155600101610879565b60006020828403121561089e578081fd5b81356001600160a01b03811681146108b4578182fd5b9392505050565b600080602083850312156108cd578081fd5b823567ffffffffffffffff808211156108e4578283fd5b818501915085601f8301126108f7578283fd5b813581811115610905578384fd5b8660208260051b8501011115610919578384fd5b60209290920196919550909350505050565b60006020828403121561093c578081fd5b5035919050565b6000602080835283518082850152825b8181101561096f57858101830151858201604001528201610953565b818111156109805783604083870101525b50601f01601f1916929092016040019392505050565b6020808252818101527f4f776e61626c653a2063616c6c6572206973206e6f7420746865206f776e6572604082015260600190565b600082198211156109de576109de610a94565b500190565b6000826109fe57634e487b7160e01b81526012600452602481fd5b500490565b6000816000190483118215151615610a1d57610a1d610a94565b500290565b600082821015610a3457610a34610a94565b500390565b600181811c90821680610a4d57607f821691505b60208210811415610a6e57634e487b7160e01b600052602260045260246000fd5b50919050565b600060ff821660ff811415610a8b57610a8b610a94565b60010192915050565b634e487b7160e01b600052601160045260246000fdfea26469706673582212209cb211dacca3a5f8dbc9f672c3dae83f97d9e3929379caddf2e665f59c5dd2ce64736f6c63430008040033",
  "devdoc": {
    "kind": "dev",
    "methods": {
      "owner()": {
        "details": "Returns the address of the current owner."
      },
      "renounceOwnership()": {
        "details": "Leaves the contract without owner. It will not be possible to call `onlyOwner` functions anymore. Can only be called by the current owner. NOTE: Renouncing ownership will leave the contract without an owner, thereby removing any functionality that is only available to the owner."
      },
      "transferOwnership(address)": {
        "details": "Transfers ownership of the contract to a new account (`newOwner`). Can only be called by the current owner."
      }
    },
    "version": 1
  },
  "userdoc": {
    "kind": "user",
    "methods": {},
    "version": 1
  },
  "storageLayout": {
    "storage": [
      {
        "astId": 7,
        "contract": "contracts/TreasuryDAO.sol:TreasuryDAO",
        "label": "_owner",
        "offset": 0,
        "slot": "0",
        "type": "t_address"
      },
      {
        "astId": 3975,
        "contract": "contracts/TreasuryDAO.sol:TreasuryDAO",
        "label": "name",
        "offset": 0,
        "slot": "1",
        "type": "t_string_storage"
      },
      {
        "astId": 3985,
        "contract": "contracts/TreasuryDAO.sol:TreasuryDAO",
        "label": "funds",
        "offset": 0,
        "slot": "2",
        "type": "t_mapping(t_address,t_uint256)"
      },
      {
        "astId": 3988,
        "contract": "contracts/TreasuryDAO.sol:TreasuryDAO",
        "label": "advisors",
        "offset": 0,
        "slot": "3",
        "type": "t_array(t_address)dyn_storage"
      },
      {
        "astId": 3991,
        "contract": "contracts/TreasuryDAO.sol:TreasuryDAO",
        "label": "services",
        "offset": 0,
        "slot": "4",
        "type": "t_array(t_address)dyn_storage"
      }
    ],
    "types": {
      "t_address": {
        "encoding": "inplace",
        "label": "address",
        "numberOfBytes": "20"
      },
      "t_array(t_address)dyn_storage": {
        "base": "t_address",
        "encoding": "dynamic_array",
        "label": "address[]",
        "numberOfBytes": "32"
      },
      "t_mapping(t_address,t_uint256)": {
        "encoding": "mapping",
        "key": "t_address",
        "label": "mapping(address => uint256)",
        "numberOfBytes": "32",
        "value": "t_uint256"
      },
      "t_string_storage": {
        "encoding": "bytes",
        "label": "string",
        "numberOfBytes": "32"
      },
      "t_uint256": {
        "encoding": "inplace",
        "label": "uint256",
        "numberOfBytes": "32"
      }
    }
  }
}