{
  "address": "0x120E8c3271015bEc41bAa4030F8A8B586ec111B9",
  "abi": [
    {
      "inputs": [
        {
          "internalType": "address",
          "name": "point",
          "type": "address"
        }
      ],
      "stateMutability": "nonpayable",
      "type": "constructor"
    },
    {
      "anonymous": false,
      "inputs": [
        {
          "indexed": false,
          "internalType": "uint256",
          "name": "index",
          "type": "uint256"
        },
        {
          "components": [
            {
              "internalType": "address",
              "name": "author",
              "type": "address"
            },
            {
              "internalType": "uint256",
              "name": "index",
              "type": "uint256"
            },
            {
              "internalType": "string",
              "name": "asset",
              "type": "string"
            },
            {
              "internalType": "uint256",
              "name": "price",
              "type": "uint256"
            },
            {
              "internalType": "uint256",
              "name": "limit",
              "type": "uint256"
            },
            {
              "internalType": "uint256",
              "name": "registeredAt",
              "type": "uint256"
            },
            {
              "internalType": "address",
              "name": "owner",
              "type": "address"
            }
          ],
          "indexed": false,
          "internalType": "struct UTBFactory.Auction",
          "name": "auction",
          "type": "tuple"
        }
      ],
      "name": "AuctionCreated",
      "type": "event"
    },
    {
      "anonymous": false,
      "inputs": [
        {
          "indexed": false,
          "internalType": "uint256",
          "name": "index",
          "type": "uint256"
        },
        {
          "components": [
            {
              "internalType": "address",
              "name": "author",
              "type": "address"
            },
            {
              "internalType": "uint256",
              "name": "index",
              "type": "uint256"
            },
            {
              "internalType": "string",
              "name": "asset",
              "type": "string"
            },
            {
              "internalType": "uint256",
              "name": "price",
              "type": "uint256"
            },
            {
              "internalType": "uint256",
              "name": "limit",
              "type": "uint256"
            },
            {
              "internalType": "uint256",
              "name": "registeredAt",
              "type": "uint256"
            },
            {
              "internalType": "address",
              "name": "owner",
              "type": "address"
            }
          ],
          "indexed": false,
          "internalType": "struct UTBFactory.Auction",
          "name": "auction",
          "type": "tuple"
        }
      ],
      "name": "AuctionUpdated",
      "type": "event"
    },
    {
      "anonymous": false,
      "inputs": [
        {
          "indexed": true,
          "internalType": "address",
          "name": "previousOwner",
          "type": "address"
        },
        {
          "indexed": true,
          "internalType": "address",
          "name": "newOwner",
          "type": "address"
        }
      ],
      "name": "OwnershipTransferred",
      "type": "event"
    },
    {
      "anonymous": false,
      "inputs": [
        {
          "indexed": false,
          "internalType": "uint256",
          "name": "index",
          "type": "uint256"
        },
        {
          "indexed": true,
          "internalType": "address",
          "name": "utility",
          "type": "address"
        }
      ],
      "name": "UtilityAdded",
      "type": "event"
    },
    {
      "inputs": [
        {
          "internalType": "uint256",
          "name": "",
          "type": "uint256"
        }
      ],
      "name": "auctionClaimed",
      "outputs": [
        {
          "internalType": "bool",
          "name": "",
          "type": "bool"
        }
      ],
      "stateMutability": "view",
      "type": "function"
    },
    {
      "inputs": [
        {
          "internalType": "uint256",
          "name": "",
          "type": "uint256"
        }
      ],
      "name": "auctions",
      "outputs": [
        {
          "internalType": "address",
          "name": "author",
          "type": "address"
        },
        {
          "internalType": "uint256",
          "name": "index",
          "type": "uint256"
        },
        {
          "internalType": "string",
          "name": "asset",
          "type": "string"
        },
        {
          "internalType": "uint256",
          "name": "price",
          "type": "uint256"
        },
        {
          "internalType": "uint256",
          "name": "limit",
          "type": "uint256"
        },
        {
          "internalType": "uint256",
          "name": "registeredAt",
          "type": "uint256"
        },
        {
          "internalType": "address",
          "name": "owner",
          "type": "address"
        }
      ],
      "stateMutability": "view",
      "type": "function"
    },
    {
      "inputs": [
        {
          "internalType": "uint256",
          "name": "index",
          "type": "uint256"
        }
      ],
      "name": "bidAuction",
      "outputs": [],
      "stateMutability": "payable",
      "type": "function"
    },
    {
      "inputs": [],
      "name": "buyoutPercent",
      "outputs": [
        {
          "internalType": "uint8",
          "name": "",
          "type": "uint8"
        }
      ],
      "stateMutability": "view",
      "type": "function"
    },
    {
      "inputs": [
        {
          "internalType": "uint256",
          "name": "index",
          "type": "uint256"
        }
      ],
      "name": "claimBid",
      "outputs": [],
      "stateMutability": "nonpayable",
      "type": "function"
    },
    {
      "inputs": [],
      "name": "getToken",
      "outputs": [
        {
          "internalType": "address",
          "name": "",
          "type": "address"
        }
      ],
      "stateMutability": "view",
      "type": "function"
    },
    {
      "inputs": [],
      "name": "locked",
      "outputs": [
        {
          "internalType": "uint256",
          "name": "",
          "type": "uint256"
        }
      ],
      "stateMutability": "view",
      "type": "function"
    },
    {
      "inputs": [],
      "name": "name",
      "outputs": [
        {
          "internalType": "string",
          "name": "",
          "type": "string"
        }
      ],
      "stateMutability": "view",
      "type": "function"
    },
    {
      "inputs": [],
      "name": "owner",
      "outputs": [
        {
          "internalType": "address",
          "name": "",
          "type": "address"
        }
      ],
      "stateMutability": "view",
      "type": "function"
    },
    {
      "inputs": [],
      "name": "raiseFunds",
      "outputs": [],
      "stateMutability": "payable",
      "type": "function"
    },
    {
      "inputs": [
        {
          "internalType": "uint256",
          "name": "index",
          "type": "uint256"
        },
        {
          "internalType": "string",
          "name": "asset",
          "type": "string"
        },
        {
          "internalType": "uint256",
          "name": "price",
          "type": "uint256"
        },
        {
          "internalType": "uint256",
          "name": "limit",
          "type": "uint256"
        },
        {
          "internalType": "bool",
          "name": "isDirect",
          "type": "bool"
        }
      ],
      "name": "registerAuction",
      "outputs": [
        {
          "internalType": "uint256",
          "name": "auctionIndex",
          "type": "uint256"
        }
      ],
      "stateMutability": "payable",
      "type": "function"
    },
    {
      "inputs": [],
      "name": "registerPercent",
      "outputs": [
        {
          "internalType": "uint8",
          "name": "",
          "type": "uint8"
        }
      ],
      "stateMutability": "view",
      "type": "function"
    },
    {
      "inputs": [
        {
          "internalType": "address",
          "name": "utility",
          "type": "address"
        }
      ],
      "name": "registerUtility",
      "outputs": [],
      "stateMutability": "nonpayable",
      "type": "function"
    },
    {
      "inputs": [
        {
          "internalType": "uint256",
          "name": "index",
          "type": "uint256"
        }
      ],
      "name": "removeUtilityPoint",
      "outputs": [],
      "stateMutability": "nonpayable",
      "type": "function"
    },
    {
      "inputs": [],
      "name": "renounceOwnership",
      "outputs": [],
      "stateMutability": "nonpayable",
      "type": "function"
    },
    {
      "inputs": [
        {
          "internalType": "address",
          "name": "treasuryDAO_",
          "type": "address"
        }
      ],
      "name": "setTreasuryDAO",
      "outputs": [],
      "stateMutability": "nonpayable",
      "type": "function"
    },
    {
      "inputs": [
        {
          "internalType": "uint256",
          "name": "index",
          "type": "uint256"
        }
      ],
      "name": "setUtilityPoint",
      "outputs": [],
      "stateMutability": "nonpayable",
      "type": "function"
    },
    {
      "inputs": [],
      "name": "token",
      "outputs": [
        {
          "internalType": "contract IERC20Token",
          "name": "",
          "type": "address"
        }
      ],
      "stateMutability": "view",
      "type": "function"
    },
    {
      "inputs": [],
      "name": "totalAuctions",
      "outputs": [
        {
          "internalType": "uint256",
          "name": "total",
          "type": "uint256"
        }
      ],
      "stateMutability": "view",
      "type": "function"
    },
    {
      "inputs": [],
      "name": "totalUtilities",
      "outputs": [
        {
          "internalType": "uint256",
          "name": "total",
          "type": "uint256"
        }
      ],
      "stateMutability": "view",
      "type": "function"
    },
    {
      "inputs": [
        {
          "internalType": "address",
          "name": "newOwner",
          "type": "address"
        }
      ],
      "name": "transferOwnership",
      "outputs": [],
      "stateMutability": "nonpayable",
      "type": "function"
    },
    {
      "inputs": [],
      "name": "treasuryDAO",
      "outputs": [
        {
          "internalType": "address",
          "name": "",
          "type": "address"
        }
      ],
      "stateMutability": "view",
      "type": "function"
    },
    {
      "inputs": [
        {
          "internalType": "uint256",
          "name": "index",
          "type": "uint256"
        },
        {
          "internalType": "string",
          "name": "asset",
          "type": "string"
        }
      ],
      "name": "updateAuction",
      "outputs": [],
      "stateMutability": "nonpayable",
      "type": "function"
    },
    {
      "inputs": [
        {
          "internalType": "uint256",
          "name": "index",
          "type": "uint256"
        },
        {
          "internalType": "uint256",
          "name": "price",
          "type": "uint256"
        },
        {
          "internalType": "uint256",
          "name": "limit",
          "type": "uint256"
        }
      ],
      "name": "updateAuctionPrice",
      "outputs": [],
      "stateMutability": "nonpayable",
      "type": "function"
    },
    {
      "inputs": [
        {
          "internalType": "uint256",
          "name": "",
          "type": "uint256"
        }
      ],
      "name": "utilities",
      "outputs": [
        {
          "internalType": "contract IUtilityBase",
          "name": "",
          "type": "address"
        }
      ],
      "stateMutability": "view",
      "type": "function"
    },
    {
      "inputs": [],
      "name": "withdraw",
      "outputs": [],
      "stateMutability": "nonpayable",
      "type": "function"
    },
    {
      "inputs": [],
      "name": "withdrawPercent",
      "outputs": [
        {
          "internalType": "uint8",
          "name": "",
          "type": "uint8"
        }
      ],
      "stateMutability": "view",
      "type": "function"
    }
  ],
  "transactionHash": "0xce11421b72efa08f5c213f6a594a430ba53f6f1437d5c8bd078655acdf3d75fb",
  "args": [
    "0x1F4378E07B8450b84778966560B68f3995bA3CeB"
  ],
  "solcInputHash": "502e51b79a3b2eac6a2ce83a540fac3f",
  "bytecode": "0x60806040523480156200001157600080fd5b50604051620028603803806200286083398101604081905262000034916200009b565b600080546001600160a01b031916339081178255604051909182917f8be0079c531659141344cd1fd0a4f28419497f9722a3daafe3b4186f6b6457e0908290a350600780546001600160a01b0319166001600160a01b0392909216919091179055620000cb565b600060208284031215620000ad578081fd5b81516001600160a01b0381168114620000c4578182fd5b9392505050565b61278580620000db6000396000f3fe60806040526004361061019c5760003560e01c8063715018a6116100ec578063be6d24ec1161008a578063dd3d1c6411610064578063dd3d1c6414610454578063f2fde38b14610494578063fc0c546a146104b4578063fec67b0d146104d457600080fd5b8063be6d24ec14610216578063cf3090121461041e578063d6bb2ec91461043457600080fd5b80639c0e7824116100c65780639c0e782414610272578063a46eddcf146103be578063ad18e97e146103de578063b4b0cd16146103fe57600080fd5b8063715018a6146103765780638a36c7ea1461038b5780638da5cb5b146103a057600080fd5b80632d4a2146116101595780633ccfd60b116101335780633ccfd60b146102fb578063571a26a014610310578063642b217a1461034357806364a7d7c71461036357600080fd5b80632d4a2146146102a6578063332eec45146102c65780633ca8c343146102db57600080fd5b806306fdde03146101a15780630729e016146101f55780630fd38b651461021657806316002f4a1461023d578063211130571461025257806321df0da714610274575b600080fd5b3480156101ad57600080fd5b506101df604051806040016040528060128152602001715574696c69747962696120466163746f727960701b81525081565b6040516101ec91906123fd565b60405180910390f35b6102086102033660046121cb565b6104f4565b6040519081526020016101ec565b34801561022257600080fd5b5061022b600581565b60405160ff90911681526020016101ec565b34801561024957600080fd5b50600354610208565b34801561025e57600080fd5b5061027261026d366004612156565b6109f5565b005b34801561028057600080fd5b506007546001600160a01b03165b6040516001600160a01b0390911681526020016101ec565b3480156102b257600080fd5b5061028e6102c1366004612156565b610d3d565b3480156102d257600080fd5b50600154610208565b3480156102e757600080fd5b506102726102f6366004612156565b610d67565b34801561030757600080fd5b50610272610e52565b34801561031c57600080fd5b5061033061032b366004612156565b610f90565b6040516101ec97969594939291906123ac565b34801561034f57600080fd5b5061027261035e36600461223c565b61107b565b610272610371366004612156565b6112d1565b34801561038257600080fd5b50610272611878565b34801561039757600080fd5b5061022b600281565b3480156103ac57600080fd5b506000546001600160a01b031661028e565b3480156103ca57600080fd5b506102726103d936600461211e565b6118ec565b3480156103ea57600080fd5b5060065461028e906001600160a01b031681565b34801561040a57600080fd5b50610272610419366004612186565b611985565b34801561042a57600080fd5b5061020860055481565b34801561044057600080fd5b5061027261044f36600461211e565b611b6b565b34801561046057600080fd5b5061048461046f366004612156565b60046020526000908152604090205460ff1681565b60405190151581526020016101ec565b3480156104a057600080fd5b506102726104af36600461211e565b611d77565b3480156104c057600080fd5b5060075461028e906001600160a01b031681565b3480156104e057600080fd5b506102726104ef366004612156565b611e61565b60015460009086106105215760405162461bcd60e51b815260040161051890612410565b60405180910390fd5b60008551116105625760405162461bcd60e51b815260206004820152600d60248201526c105cdcd95d081a5b9d985b1a59609a1b6044820152606401610518565b600084116105a25760405162461bcd60e51b815260206004820152600d60248201526c141c9a58d9481a5b9d985b1a59609a1b6044820152606401610518565b600083116105e35760405162461bcd60e51b815260206004820152600e60248201526d105b5bdd5b9d081a5b9d985b1a5960921b6044820152606401610518565b506003546040805160e081018252338152602081018890529081018690526000906060810161061187611ee4565b815260200185815260200142815260200160006001600160a01b03168152509050336001600160a01b03166001888154811061065d57634e487b7160e01b600052603260045260246000fd5b6000918252602091829020015460408051638da5cb5b60e01b815290516001600160a01b0390921692638da5cb5b92600480840193829003018186803b1580156106a657600080fd5b505afa1580156106ba573d6000803e3d6000fd5b505050506040513d601f19601f820116820180604052508101906106de919061213a565b6001600160a01b0316141561078457600087815260026020526040902054600360ff90911611156107455760405162461bcd60e51b815260206004820152601160248201527013585e081b1a5b5a5d081c995858da1959607a1b6044820152606401610518565b600087815260026020526040812080546001929061076790849060ff16612635565b92506101000a81548160ff021916908360ff1602179055506107ff565b82156107b75761079381611f8b565b3410156107b25760405162461bcd60e51b815260040161051890612462565b6107ff565b6107c081611fb4565b3410156107df5760405162461bcd60e51b815260040161051890612462565b6107e881611fb4565b600560008282546107f9919061261d565b90915550505b821561089f573360c0820152600180548890811061082d57634e487b7160e01b600052603260045260246000fd5b600091825260209091200154604051630a748fdf60e41b81526001600160a01b039091169063a748fdf09061086c9033908a908a908a90600401612351565b600060405180830381600087803b15801561088657600080fd5b505af115801561089a573d6000803e3d6000fd5b505050505b6003805460018101825560009190915281517fc2575a0e9e593c00f959f8c92f12db2869c3395a3b0502d05e2516446f71f85b600790920291820180546001600160a01b0319166001600160a01b039092169190911781556020808401517fc2575a0e9e593c00f959f8c92f12db2869c3395a3b0502d05e2516446f71f85c84015560408401518051859461095a937fc2575a0e9e593c00f959f8c92f12db2869c3395a3b0502d05e2516446f71f85d909101920190611ffe565b5060608201516003828101919091556080830151600483015560a0830151600583015560c090920151600690910180546001600160a01b0319166001600160a01b03909216919091179055547f0a3c381ff05b7a63e7ec0c3de8000dcd2f5a026898c1bef957ee7cdf0a2418a5906109d490600190612699565b826040516109e3929190612514565b60405180910390a15095945050505050565b806109ff60035490565b8110610a1d5760405162461bcd60e51b815260040161051890612439565b60006001600160a01b031660038281548110610a4957634e487b7160e01b600052603260045260246000fd5b60009182526020909120600660079092020101546001600160a01b03161415610aa95760405162461bcd60e51b8152602060048201526012602482015271105d58dd1a5bdb881b9bdd081c185cdcd95960721b6044820152606401610518565b81336001600160a01b031660038281548110610ad557634e487b7160e01b600052603260045260246000fd5b60009182526020909120600790910201546001600160a01b031614610b0c5760405162461bcd60e51b81526004016105189061248c565b60008381526004602052604090205460ff1615610b6b5760405162461bcd60e51b815260206004820152601760248201527f41756374696f6e20616c726561647920636c61696d65640000000000000000006044820152606401610518565b6000838152600460205260409020805460ff1916600117905560038054610cc6919085908110610bab57634e487b7160e01b600052603260045260246000fd5b90600052602060002090600702016040518060e00160405290816000820160009054906101000a90046001600160a01b03166001600160a01b03166001600160a01b0316815260200160018201548152602001600282018054610c0d906126d3565b80601f0160208091040260200160405190810160405280929190818152602001828054610c39906126d3565b8015610c865780601f10610c5b57610100808354040283529160200191610c86565b820191906000526020600020905b815481529060010190602001808311610c6957829003601f168201915b50505091835250506003820154602082015260048201546040820152600582015460608201526006909101546001600160a01b0316608090910152611fc1565b60056000828254610cd79190612699565b92505081905550336001600160a01b03166108fc610d0f60038681548110610bab57634e487b7160e01b600052603260045260246000fd5b6040518115909202916000818181858888f19350505050158015610d37573d6000803e3d6000fd5b50505050565b60018181548110610d4d57600080fd5b6000918252602090912001546001600160a01b0316905081565b6000546001600160a01b03163314610d915760405162461bcd60e51b8152600401610518906124b7565b6001548110610db25760405162461bcd60e51b815260040161051890612410565b600754600180546001600160a01b039092169163a688e6e5919084908110610dea57634e487b7160e01b600052603260045260246000fd5b60009182526020909120015460405160e083901b6001600160e01b03191681526001600160a01b039091166004820152602401600060405180830381600087803b158015610e3757600080fd5b505af1158015610e4b573d6000803e3d6000fd5b5050505050565b6000546001600160a01b03163314610e7c5760405162461bcd60e51b8152600401610518906124b7565b6005544711610ec35760405162461bcd60e51b8152602060048201526013602482015272105b5bdd5b9d081a5b9cdd59999a58da595b9d606a1b6044820152606401610518565b600060055447610ed39190612699565b6006549091506001600160a01b0316610f2357600080546040516001600160a01b039091169183156108fc02918491818181858888f19350505050158015610f1f573d6000803e3d6000fd5b5050565b600660009054906101000a90046001600160a01b03166001600160a01b031663b361e198826040518263ffffffff1660e01b81526004016000604051808303818588803b158015610f7357600080fd5b505af1158015610f87573d6000803e3d6000fd5b50505050505b50565b60038181548110610fa057600080fd5b60009182526020909120600790910201805460018201546002830180546001600160a01b039093169450909291610fd6906126d3565b80601f0160208091040260200160405190810160405280929190818152602001828054611002906126d3565b801561104f5780601f106110245761010080835404028352916020019161104f565b820191906000526020600020905b81548152906001019060200180831161103257829003601f168201915b50505050600383015460048401546005850154600690950154939491939092506001600160a01b031687565b8261108560035490565b81106110a35760405162461bcd60e51b815260040161051890612439565b60006001600160a01b0316600382815481106110cf57634e487b7160e01b600052603260045260246000fd5b60009182526020909120600660079092020101546001600160a01b0316146111095760405162461bcd60e51b8152600401610518906124ec565b83336001600160a01b03166003828154811061113557634e487b7160e01b600052603260045260246000fd5b60009182526020909120600790910201546001600160a01b03161461116c5760405162461bcd60e51b81526004016105189061248c565b600084116111ac5760405162461bcd60e51b815260206004820152600d60248201526c141c9a58d9481a5b9d985b1a59609a1b6044820152606401610518565b600083116111ed5760405162461bcd60e51b815260206004820152600e60248201526d105b5bdd5b9d081a5b9d985b1a5960921b6044820152606401610518565b6111f684611ee4565b6003868154811061121757634e487b7160e01b600052603260045260246000fd5b906000526020600020906007020160030181905550826003868154811061124e57634e487b7160e01b600052603260045260246000fd5b9060005260206000209060070201600401819055507f13acfa70d3c6b6d1506080fd982b69ee96691dfa1fb880529b5dd4ff98656d5d85600387815481106112a657634e487b7160e01b600052603260045260246000fd5b90600052602060002090600702016040516112c292919061258d565b60405180910390a15050505050565b806112db60035490565b81106112f95760405162461bcd60e51b815260040161051890612439565b60006001600160a01b03166003828154811061132557634e487b7160e01b600052603260045260246000fd5b60009182526020909120600660079092020101546001600160a01b03161461135f5760405162461bcd60e51b8152600401610518906124ec565b61149e6003838154811061138357634e487b7160e01b600052603260045260246000fd5b90600052602060002090600702016040518060e00160405290816000820160009054906101000a90046001600160a01b03166001600160a01b03166001600160a01b03168152602001600182015481526020016002820180546113e5906126d3565b80601f0160208091040260200160405190810160405280929190818152602001828054611411906126d3565b801561145e5780601f106114335761010080835404028352916020019161145e565b820191906000526020600020905b81548152906001019060200180831161144157829003601f168201915b50505091835250506003820154602082015260048201546040820152600582015460608201526006909101546001600160a01b0316608090910152611fdd565b3410156114bd5760405162461bcd60e51b815260040161051890612462565b33600383815481106114df57634e487b7160e01b600052603260045260246000fd5b906000526020600020906007020160060160006101000a8154816001600160a01b0302191690836001600160a01b031602179055506116536003838154811061153857634e487b7160e01b600052603260045260246000fd5b90600052602060002090600702016040518060e00160405290816000820160009054906101000a90046001600160a01b03166001600160a01b03166001600160a01b031681526020016001820154815260200160028201805461159a906126d3565b80601f01602080910402602001604051908101604052809291908181526020018280546115c6906126d3565b80156116135780601f106115e857610100808354040283529160200191611613565b820191906000526020600020905b8154815290600101906020018083116115f657829003601f168201915b50505091835250506003820154602082015260048201546040820152600582015460608201526006909101546001600160a01b0316608090910152611f8b565b60056000828254611664919061261d565b9250508190555060016003838154811061168e57634e487b7160e01b600052603260045260246000fd5b906000526020600020906007020160010154815481106116be57634e487b7160e01b600052603260045260246000fd5b600091825260209091200154600380546001600160a01b039092169163a748fdf09190859081106116ff57634e487b7160e01b600052603260045260246000fd5b906000526020600020906007020160060160009054906101000a90046001600160a01b03166003858154811061174557634e487b7160e01b600052603260045260246000fd5b90600052602060002090600702016002016003868154811061177757634e487b7160e01b600052603260045260246000fd5b906000526020600020906007020160030154600387815481106117aa57634e487b7160e01b600052603260045260246000fd5b9060005260206000209060070201600401546040518563ffffffff1660e01b81526004016117db9493929190612388565b600060405180830381600087803b1580156117f557600080fd5b505af1158015611809573d6000803e3d6000fd5b505050507f13acfa70d3c6b6d1506080fd982b69ee96691dfa1fb880529b5dd4ff98656d5d826003848154811061185057634e487b7160e01b600052603260045260246000fd5b906000526020600020906007020160405161186c92919061258d565b60405180910390a15050565b6000546001600160a01b031633146118a25760405162461bcd60e51b8152600401610518906124b7565b600080546040516001600160a01b03909116907f8be0079c531659141344cd1fd0a4f28419497f9722a3daafe3b4186f6b6457e0908390a3600080546001600160a01b0319169055565b6000546001600160a01b031633146119165760405162461bcd60e51b8152600401610518906124b7565b6001600160a01b0381166119635760405162461bcd60e51b8152602060048201526014602482015273151c99585cdd5c9e48111053c81a5b9d985b1a5960621b6044820152606401610518565b600680546001600160a01b0319166001600160a01b0392909216919091179055565b8161198f60035490565b81106119ad5760405162461bcd60e51b815260040161051890612439565b60006001600160a01b0316600382815481106119d957634e487b7160e01b600052603260045260246000fd5b60009182526020909120600660079092020101546001600160a01b031614611a135760405162461bcd60e51b8152600401610518906124ec565b82336001600160a01b031660038281548110611a3f57634e487b7160e01b600052603260045260246000fd5b60009182526020909120600790910201546001600160a01b031614611a765760405162461bcd60e51b81526004016105189061248c565b6000835111611ab75760405162461bcd60e51b815260206004820152600d60248201526c105cdcd95d081a5b9d985b1a59609a1b6044820152606401610518565b8260038581548110611ad957634e487b7160e01b600052603260045260246000fd5b90600052602060002090600702016002019080519060200190611afd929190611ffe565b507f13acfa70d3c6b6d1506080fd982b69ee96691dfa1fb880529b5dd4ff98656d5d8460038681548110611b4157634e487b7160e01b600052603260045260246000fd5b9060005260206000209060070201604051611b5d92919061258d565b60405180910390a150505050565b6000546001600160a01b03163314611b955760405162461bcd60e51b8152600401610518906124b7565b6001600160a01b038116611bbb5760405162461bcd60e51b815260040161051890612410565b6000819050306001600160a01b0316816001600160a01b031663c45a01556040518163ffffffff1660e01b815260040160206040518083038186803b158015611c0357600080fd5b505afa158015611c17573d6000803e3d6000fd5b505050506040513d601f19601f82011682018060405250810190611c3b919061213a565b6001600160a01b031614611c835760405162461bcd60e51b815260206004820152600f60248201526e119858dd1bdc9e481a5b9d985b1a59608a1b6044820152606401610518565b60075460405163a688e6e560e01b81526001600160a01b0384811660048301529091169063a688e6e590602401600060405180830381600087803b158015611cca57600080fd5b505af1158015611cde573d6000803e3d6000fd5b505060018054808201825560008290527fb10e2d527612073b26eecdfd717e6a320cf44b4afac2b0732d9fcbe2b7fa0cf60180546001600160a01b0319166001600160a01b0386811691909117909155815490861693507fa3576ea6aad03b4126d61ad345d664c1179dd4870069c0f2f9e4dc98627f4a359250611d629190612699565b60405190815260200160405180910390a25050565b6000546001600160a01b03163314611da15760405162461bcd60e51b8152600401610518906124b7565b6001600160a01b038116611e065760405162461bcd60e51b815260206004820152602660248201527f4f776e61626c653a206e6577206f776e657220697320746865207a65726f206160448201526564647265737360d01b6064820152608401610518565b600080546040516001600160a01b03808516939216917f8be0079c531659141344cd1fd0a4f28419497f9722a3daafe3b4186f6b6457e091a3600080546001600160a01b0319166001600160a01b0392909216919091179055565b6000546001600160a01b03163314611e8b5760405162461bcd60e51b8152600401610518906124b7565b6001548110611eac5760405162461bcd60e51b815260040161051890612410565b600754600180546001600160a01b039092169163dc1c0be7919084908110610dea57634e487b7160e01b600052603260045260246000fd5b600080600760009054906101000a90046001600160a01b03166001600160a01b03166318ebdced6040518163ffffffff1660e01b815260040160206040518083038186803b158015611f3557600080fd5b505afa158015611f49573d6000803e3d6000fd5b505050506040513d601f19601f82011682018060405250810190611f6d919061216e565b905080611f7a818561265a565b611f84919061267a565b9392505050565b600060646002611f9a84611fe8565b611fa4919061267a565b611fae919061265a565b92915050565b60006064611fa483611fe8565b60006064611fd1600260056126b0565b60ff16611f9a84611fe8565b600060646005611f9a845b600081608001518260600151611fae919061267a565b82805461200a906126d3565b90600052602060002090601f01602090048101928261202c5760008555612072565b82601f1061204557805160ff1916838001178555612072565b82800160010185558215612072579182015b82811115612072578251825591602001919060010190612057565b5061207e929150612082565b5090565b5b8082111561207e5760008155600101612083565b600082601f8301126120a7578081fd5b813567ffffffffffffffff808211156120c2576120c2612724565b604051601f8301601f19908116603f011681019082821181831017156120ea576120ea612724565b81604052838152866020858801011115612102578485fd5b8360208701602083013792830160200193909352509392505050565b60006020828403121561212f578081fd5b8135611f848161273a565b60006020828403121561214b578081fd5b8151611f848161273a565b600060208284031215612167578081fd5b5035919050565b60006020828403121561217f578081fd5b5051919050565b60008060408385031215612198578081fd5b82359150602083013567ffffffffffffffff8111156121b5578182fd5b6121c185828601612097565b9150509250929050565b600080600080600060a086880312156121e2578081fd5b85359450602086013567ffffffffffffffff8111156121ff578182fd5b61220b88828901612097565b94505060408601359250606086013591506080860135801515811461222e578182fd5b809150509295509295909350565b600080600060608486031215612250578283fd5b505081359360208301359350604090920135919050565b60008151808452815b8181101561228c57602081850181015186830182015201612270565b8181111561229d5782602083870101525b50601f01601f19169290920160200192915050565b8054600090600181811c90808316806122cc57607f831692505b60208084108214156122ec57634e487b7160e01b86526022600452602486fd5b838852818015612303576001811461231757612345565b60ff19861689830152604089019650612345565b876000528160002060005b8681101561233d5781548b8201850152908501908301612322565b8a0183019750505b50505050505092915050565b6001600160a01b038516815260806020820181905260009061237590830186612267565b6040830194909452506060015292915050565b6001600160a01b0385168152608060208201819052600090612375908301866122b2565b600060018060a01b03808a16835288602084015260e060408401526123d460e0840189612267565b91508660608401528560808401528460a084015280841660c08401525098975050505050505050565b602081526000611f846020830184612267565b6020808252600f908201526e155d1a5b1a5d1e481a5b9d985b1a59608a1b604082015260600190565b6020808252600f908201526e105d58dd1a5bdb881a5b9d985b1a59608a1b604082015260600190565b60208082526010908201526f119959481a5b9cdd59999a58da595b9d60821b604082015260600190565b60208082526011908201527014195c9b5a5cdcda5bdb8819195b9a5959607a1b604082015260600190565b6020808252818101527f4f776e61626c653a2063616c6c6572206973206e6f7420746865206f776e6572604082015260600190565b6020808252600e908201526d105d58dd1a5bdb881c185cdcd95960921b604082015260600190565b82815260406020820152600060018060a01b0380845116604084015260208401516060840152604084015160e06080850152612554610120850182612267565b9050606085015160a0850152608085015160c085015260a085015160e08501528160c08601511661010085015280925050509392505050565b828152604060208201526125bc604082016125af84546001600160a01b031690565b6001600160a01b03169052565b6001820154606082015260e0608082015260006125e06101208301600285016122b2565b600384015460a0840152600484015460c0840152600584015460e08401526006909301546001600160a01b03166101009092019190915250919050565b600082198211156126305761263061270e565b500190565b600060ff821660ff84168060ff038211156126525761265261270e565b019392505050565b60008261267557634e487b7160e01b81526012600452602481fd5b500490565b60008160001904831182151516156126945761269461270e565b500290565b6000828210156126ab576126ab61270e565b500390565b600060ff821660ff8416808210156126ca576126ca61270e565b90039392505050565b600181811c908216806126e757607f821691505b6020821081141561270857634e487b7160e01b600052602260045260246000fd5b50919050565b634e487b7160e01b600052601160045260246000fd5b634e487b7160e01b600052604160045260246000fd5b6001600160a01b0381168114610f8d57600080fdfea264697066735822122058c8f36cd286926573b70f6d481a7613cfa47dcc4064cb1e7b334383e13088b364736f6c63430008040033",
  "devdoc": {
    "kind": "dev",
    "methods": {
      "owner()": {
        "details": "Returns the address of the current owner."
      },
      "renounceOwnership()": {
        "details": "Leaves the contract without owner. It will not be possible to call `onlyOwner` functions anymore. Can only be called by the current owner. NOTE: Renouncing ownership will leave the contract without an owner, thereby removing any functionality that is only available to the owner."
      },
      "transferOwnership(address)": {
        "details": "Transfers ownership of the contract to a new account (`newOwner`). Can only be called by the current owner."
      }
    },
    "version": 1
  },
  "userdoc": {
    "kind": "user",
    "methods": {},
    "version": 1
  },
  "storageLayout": {
    "storage": [
      {
        "astId": 7,
        "contract": "contracts/UTBFactory.sol:UTBFactory",
        "label": "_owner",
        "offset": 0,
        "slot": "0",
        "type": "t_address"
      },
      {
        "astId": 4443,
        "contract": "contracts/UTBFactory.sol:UTBFactory",
        "label": "utilities",
        "offset": 0,
        "slot": "1",
        "type": "t_array(t_contract(IUtilityBase)8561)dyn_storage"
      },
      {
        "astId": 4447,
        "contract": "contracts/UTBFactory.sol:UTBFactory",
        "label": "utilityRegists",
        "offset": 0,
        "slot": "2",
        "type": "t_mapping(t_uint256,t_uint8)"
      },
      {
        "astId": 4454,
        "contract": "contracts/UTBFactory.sol:UTBFactory",
        "label": "auctions",
        "offset": 0,
        "slot": "3",
        "type": "t_array(t_struct(Auction)4419_storage)dyn_storage"
      },
      {
        "astId": 4458,
        "contract": "contracts/UTBFactory.sol:UTBFactory",
        "label": "auctionClaimed",
        "offset": 0,
        "slot": "4",
        "type": "t_mapping(t_uint256,t_bool)"
      },
      {
        "astId": 4466,
        "contract": "contracts/UTBFactory.sol:UTBFactory",
        "label": "locked",
        "offset": 0,
        "slot": "5",
        "type": "t_uint256"
      },
      {
        "astId": 4468,
        "contract": "contracts/UTBFactory.sol:UTBFactory",
        "label": "treasuryDAO",
        "offset": 0,
        "slot": "6",
        "type": "t_address"
      },
      {
        "astId": 4471,
        "contract": "contracts/UTBFactory.sol:UTBFactory",
        "label": "token",
        "offset": 0,
        "slot": "7",
        "type": "t_contract(IERC20Token)8056"
      }
    ],
    "types": {
      "t_address": {
        "encoding": "inplace",
        "label": "address",
        "numberOfBytes": "20"
      },
      "t_array(t_contract(IUtilityBase)8561)dyn_storage": {
        "base": "t_contract(IUtilityBase)8561",
        "encoding": "dynamic_array",
        "label": "contract IUtilityBase[]",
        "numberOfBytes": "32"
      },
      "t_array(t_struct(Auction)4419_storage)dyn_storage": {
        "base": "t_struct(Auction)4419_storage",
        "encoding": "dynamic_array",
        "label": "struct UTBFactory.Auction[]",
        "numberOfBytes": "32"
      },
      "t_bool": {
        "encoding": "inplace",
        "label": "bool",
        "numberOfBytes": "1"
      },
      "t_contract(IERC20Token)8056": {
        "encoding": "inplace",
        "label": "contract IERC20Token",
        "numberOfBytes": "20"
      },
      "t_contract(IUtilityBase)8561": {
        "encoding": "inplace",
        "label": "contract IUtilityBase",
        "numberOfBytes": "20"
      },
      "t_mapping(t_uint256,t_bool)": {
        "encoding": "mapping",
        "key": "t_uint256",
        "label": "mapping(uint256 => bool)",
        "numberOfBytes": "32",
        "value": "t_bool"
      },
      "t_mapping(t_uint256,t_uint8)": {
        "encoding": "mapping",
        "key": "t_uint256",
        "label": "mapping(uint256 => uint8)",
        "numberOfBytes": "32",
        "value": "t_uint8"
      },
      "t_string_storage": {
        "encoding": "bytes",
        "label": "string",
        "numberOfBytes": "32"
      },
      "t_struct(Auction)4419_storage": {
        "encoding": "inplace",
        "label": "struct UTBFactory.Auction",
        "members": [
          {
            "astId": 4406,
            "contract": "contracts/UTBFactory.sol:UTBFactory",
            "label": "author",
            "offset": 0,
            "slot": "0",
            "type": "t_address"
          },
          {
            "astId": 4408,
            "contract": "contracts/UTBFactory.sol:UTBFactory",
            "label": "index",
            "offset": 0,
            "slot": "1",
            "type": "t_uint256"
          },
          {
            "astId": 4410,
            "contract": "contracts/UTBFactory.sol:UTBFactory",
            "label": "asset",
            "offset": 0,
            "slot": "2",
            "type": "t_string_storage"
          },
          {
            "astId": 4412,
            "contract": "contracts/UTBFactory.sol:UTBFactory",
            "label": "price",
            "offset": 0,
            "slot": "3",
            "type": "t_uint256"
          },
          {
            "astId": 4414,
            "contract": "contracts/UTBFactory.sol:UTBFactory",
            "label": "limit",
            "offset": 0,
            "slot": "4",
            "type": "t_uint256"
          },
          {
            "astId": 4416,
            "contract": "contracts/UTBFactory.sol:UTBFactory",
            "label": "registeredAt",
            "offset": 0,
            "slot": "5",
            "type": "t_uint256"
          },
          {
            "astId": 4418,
            "contract": "contracts/UTBFactory.sol:UTBFactory",
            "label": "owner",
            "offset": 0,
            "slot": "6",
            "type": "t_address"
          }
        ],
        "numberOfBytes": "224"
      },
      "t_uint256": {
        "encoding": "inplace",
        "label": "uint256",
        "numberOfBytes": "32"
      },
      "t_uint8": {
        "encoding": "inplace",
        "label": "uint8",
        "numberOfBytes": "1"
      }
    }
  }
}