{
  "address": "0xD9E93F42b20C905D9C9b52d6881283dFc21464a7",
  "abi": [
    {
      "inputs": [
        {
          "internalType": "string",
          "name": "baseURI",
          "type": "string"
        }
      ],
      "stateMutability": "nonpayable",
      "type": "constructor"
    },
    {
      "anonymous": false,
      "inputs": [
        {
          "indexed": true,
          "internalType": "address",
          "name": "owner",
          "type": "address"
        },
        {
          "indexed": true,
          "internalType": "address",
          "name": "approved",
          "type": "address"
        },
        {
          "indexed": true,
          "internalType": "uint256",
          "name": "tokenId",
          "type": "uint256"
        }
      ],
      "name": "Approval",
      "type": "event"
    },
    {
      "anonymous": false,
      "inputs": [
        {
          "indexed": true,
          "internalType": "address",
          "name": "owner",
          "type": "address"
        },
        {
          "indexed": true,
          "internalType": "address",
          "name": "operator",
          "type": "address"
        },
        {
          "indexed": false,
          "internalType": "bool",
          "name": "approved",
          "type": "bool"
        }
      ],
      "name": "ApprovalForAll",
      "type": "event"
    },
    {
      "anonymous": false,
      "inputs": [
        {
          "indexed": false,
          "internalType": "uint256",
          "name": "assetId",
          "type": "uint256"
        },
        {
          "components": [
            {
              "internalType": "string",
              "name": "asset",
              "type": "string"
            },
            {
              "internalType": "address",
              "name": "author",
              "type": "address"
            },
            {
              "internalType": "uint256",
              "name": "price",
              "type": "uint256"
            },
            {
              "internalType": "uint256",
              "name": "limit",
              "type": "uint256"
            }
          ],
          "indexed": false,
          "internalType": "struct StatefulURI.Asset",
          "name": "asset",
          "type": "tuple"
        }
      ],
      "name": "AssetAdded",
      "type": "event"
    },
    {
      "anonymous": false,
      "inputs": [
        {
          "indexed": false,
          "internalType": "uint256",
          "name": "assetId",
          "type": "uint256"
        },
        {
          "indexed": false,
          "internalType": "uint256",
          "name": "discount",
          "type": "uint256"
        }
      ],
      "name": "AssetDiscounted",
      "type": "event"
    },
    {
      "anonymous": false,
      "inputs": [
        {
          "indexed": false,
          "internalType": "address",
          "name": "factory",
          "type": "address"
        }
      ],
      "name": "FactorySet",
      "type": "event"
    },
    {
      "anonymous": false,
      "inputs": [
        {
          "indexed": true,
          "internalType": "address",
          "name": "previousOwner",
          "type": "address"
        },
        {
          "indexed": true,
          "internalType": "address",
          "name": "newOwner",
          "type": "address"
        }
      ],
      "name": "OwnershipTransferred",
      "type": "event"
    },
    {
      "anonymous": false,
      "inputs": [
        {
          "indexed": false,
          "internalType": "uint256",
          "name": "assetId",
          "type": "uint256"
        },
        {
          "indexed": false,
          "internalType": "uint256",
          "name": "amount",
          "type": "uint256"
        }
      ],
      "name": "RewardClaimed",
      "type": "event"
    },
    {
      "anonymous": false,
      "inputs": [
        {
          "indexed": false,
          "internalType": "address",
          "name": "author",
          "type": "address"
        },
        {
          "indexed": false,
          "internalType": "uint256",
          "name": "amount",
          "type": "uint256"
        }
      ],
      "name": "RewardsClaimed",
      "type": "event"
    },
    {
      "anonymous": false,
      "inputs": [
        {
          "indexed": false,
          "internalType": "uint256",
          "name": "tokenId",
          "type": "uint256"
        },
        {
          "indexed": false,
          "internalType": "uint8",
          "name": "state",
          "type": "uint8"
        }
      ],
      "name": "StateUpdated",
      "type": "event"
    },
    {
      "anonymous": false,
      "inputs": [
        {
          "indexed": true,
          "internalType": "address",
          "name": "from",
          "type": "address"
        },
        {
          "indexed": true,
          "internalType": "address",
          "name": "to",
          "type": "address"
        },
        {
          "indexed": true,
          "internalType": "uint256",
          "name": "tokenId",
          "type": "uint256"
        }
      ],
      "name": "Transfer",
      "type": "event"
    },
    {
      "inputs": [
        {
          "internalType": "address",
          "name": "to",
          "type": "address"
        },
        {
          "internalType": "uint256",
          "name": "tokenId",
          "type": "uint256"
        }
      ],
      "name": "approve",
      "outputs": [],
      "stateMutability": "nonpayable",
      "type": "function"
    },
    {
      "inputs": [
        {
          "internalType": "uint256",
          "name": "",
          "type": "uint256"
        }
      ],
      "name": "assets",
      "outputs": [
        {
          "internalType": "string",
          "name": "asset",
          "type": "string"
        },
        {
          "internalType": "address",
          "name": "author",
          "type": "address"
        },
        {
          "internalType": "uint256",
          "name": "price",
          "type": "uint256"
        },
        {
          "internalType": "uint256",
          "name": "limit",
          "type": "uint256"
        }
      ],
      "stateMutability": "view",
      "type": "function"
    },
    {
      "inputs": [
        {
          "internalType": "address",
          "name": "",
          "type": "address"
        },
        {
          "internalType": "uint256",
          "name": "",
          "type": "uint256"
        }
      ],
      "name": "authorAssets",
      "outputs": [
        {
          "internalType": "uint256",
          "name": "",
          "type": "uint256"
        }
      ],
      "stateMutability": "view",
      "type": "function"
    },
    {
      "inputs": [
        {
          "internalType": "address",
          "name": "owner",
          "type": "address"
        }
      ],
      "name": "balanceOf",
      "outputs": [
        {
          "internalType": "uint256",
          "name": "",
          "type": "uint256"
        }
      ],
      "stateMutability": "view",
      "type": "function"
    },
    {
      "inputs": [],
      "name": "baseURI",
      "outputs": [
        {
          "internalType": "string",
          "name": "",
          "type": "string"
        }
      ],
      "stateMutability": "view",
      "type": "function"
    },
    {
      "inputs": [
        {
          "internalType": "uint256",
          "name": "assetId",
          "type": "uint256"
        }
      ],
      "name": "buyItem",
      "outputs": [
        {
          "internalType": "uint256",
          "name": "",
          "type": "uint256"
        }
      ],
      "stateMutability": "payable",
      "type": "function"
    },
    {
      "inputs": [
        {
          "internalType": "uint256",
          "name": "assetId",
          "type": "uint256"
        },
        {
          "internalType": "address",
          "name": "to",
          "type": "address"
        }
      ],
      "name": "buyItemTo",
      "outputs": [
        {
          "internalType": "uint256",
          "name": "",
          "type": "uint256"
        }
      ],
      "stateMutability": "payable",
      "type": "function"
    },
    {
      "inputs": [
        {
          "internalType": "uint256",
          "name": "assetId",
          "type": "uint256"
        }
      ],
      "name": "buyItemWithPoints",
      "outputs": [
        {
          "internalType": "uint256",
          "name": "",
          "type": "uint256"
        }
      ],
      "stateMutability": "nonpayable",
      "type": "function"
    },
    {
      "inputs": [
        {
          "internalType": "uint256",
          "name": "assetId",
          "type": "uint256"
        },
        {
          "internalType": "address",
          "name": "to",
          "type": "address"
        }
      ],
      "name": "buyItemWithPointsTo",
      "outputs": [
        {
          "internalType": "uint256",
          "name": "",
          "type": "uint256"
        }
      ],
      "stateMutability": "nonpayable",
      "type": "function"
    },
    {
      "inputs": [
        {
          "internalType": "uint256",
          "name": "assetId",
          "type": "uint256"
        }
      ],
      "name": "claim",
      "outputs": [],
      "stateMutability": "nonpayable",
      "type": "function"
    },
    {
      "inputs": [
        {
          "internalType": "uint256",
          "name": "tokenId",
          "type": "uint256"
        }
      ],
      "name": "claimDeposits",
      "outputs": [],
      "stateMutability": "nonpayable",
      "type": "function"
    },
    {
      "inputs": [],
      "name": "claimRewards",
      "outputs": [],
      "stateMutability": "nonpayable",
      "type": "function"
    },
    {
      "inputs": [
        {
          "internalType": "uint256",
          "name": "tokenId",
          "type": "uint256"
        }
      ],
      "name": "deposit",
      "outputs": [],
      "stateMutability": "payable",
      "type": "function"
    },
    {
      "inputs": [
        {
          "internalType": "uint256",
          "name": "tokenId",
          "type": "uint256"
        }
      ],
      "name": "depositAndWrap",
      "outputs": [],
      "stateMutability": "payable",
      "type": "function"
    },
    {
      "inputs": [
        {
          "internalType": "uint256",
          "name": "tokenId",
          "type": "uint256"
        },
        {
          "internalType": "address",
          "name": "erc1155Token",
          "type": "address"
        },
        {
          "internalType": "uint256",
          "name": "erc1155TokenId",
          "type": "uint256"
        },
        {
          "internalType": "uint256",
          "name": "erc1155TokenAmount",
          "type": "uint256"
        }
      ],
      "name": "depositERC1155",
      "outputs": [],
      "stateMutability": "nonpayable",
      "type": "function"
    },
    {
      "inputs": [
        {
          "internalType": "uint256",
          "name": "tokenId",
          "type": "uint256"
        },
        {
          "internalType": "address",
          "name": "erc1155Token",
          "type": "address"
        },
        {
          "internalType": "uint256",
          "name": "erc1155TokenId",
          "type": "uint256"
        },
        {
          "internalType": "uint256",
          "name": "erc1155TokenAmount",
          "type": "uint256"
        }
      ],
      "name": "depositERC1155AndWrap",
      "outputs": [],
      "stateMutability": "nonpayable",
      "type": "function"
    },
    {
      "inputs": [
        {
          "internalType": "uint256",
          "name": "tokenId",
          "type": "uint256"
        },
        {
          "internalType": "address",
          "name": "token",
          "type": "address"
        },
        {
          "internalType": "uint256",
          "name": "amount",
          "type": "uint256"
        }
      ],
      "name": "depositERC20",
      "outputs": [],
      "stateMutability": "nonpayable",
      "type": "function"
    },
    {
      "inputs": [
        {
          "internalType": "uint256",
          "name": "tokenId",
          "type": "uint256"
        },
        {
          "internalType": "address",
          "name": "token",
          "type": "address"
        },
        {
          "internalType": "uint256",
          "name": "amount",
          "type": "uint256"
        }
      ],
      "name": "depositERC20AndWrap",
      "outputs": [],
      "stateMutability": "nonpayable",
      "type": "function"
    },
    {
      "inputs": [
        {
          "internalType": "uint256",
          "name": "tokenId",
          "type": "uint256"
        },
        {
          "internalType": "address",
          "name": "erc721Token",
          "type": "address"
        },
        {
          "internalType": "uint256",
          "name": "erc721TokenId",
          "type": "uint256"
        }
      ],
      "name": "depositERC721",
      "outputs": [],
      "stateMutability": "nonpayable",
      "type": "function"
    },
    {
      "inputs": [
        {
          "internalType": "uint256",
          "name": "tokenId",
          "type": "uint256"
        },
        {
          "internalType": "address",
          "name": "erc721Token",
          "type": "address"
        },
        {
          "internalType": "uint256",
          "name": "erc721TokenId",
          "type": "uint256"
        }
      ],
      "name": "depositERC721AndWrap",
      "outputs": [],
      "stateMutability": "nonpayable",
      "type": "function"
    },
    {
      "inputs": [
        {
          "internalType": "uint256",
          "name": "assetId",
          "type": "uint256"
        }
      ],
      "name": "discount",
      "outputs": [
        {
          "internalType": "uint256",
          "name": "discounted",
          "type": "uint256"
        }
      ],
      "stateMutability": "view",
      "type": "function"
    },
    {
      "inputs": [],
      "name": "discountPercent",
      "outputs": [
        {
          "internalType": "uint8",
          "name": "",
          "type": "uint8"
        }
      ],
      "stateMutability": "view",
      "type": "function"
    },
    {
      "inputs": [
        {
          "internalType": "uint256",
          "name": "",
          "type": "uint256"
        }
      ],
      "name": "discounts",
      "outputs": [
        {
          "internalType": "uint256",
          "name": "",
          "type": "uint256"
        }
      ],
      "stateMutability": "view",
      "type": "function"
    },
    {
      "inputs": [
        {
          "internalType": "address",
          "name": "to",
          "type": "address"
        },
        {
          "internalType": "address",
          "name": "token",
          "type": "address"
        },
        {
          "internalType": "uint256",
          "name": "tokenId",
          "type": "uint256"
        },
        {
          "internalType": "uint256",
          "name": "amount",
          "type": "uint256"
        }
      ],
      "name": "escapeERC1155",
      "outputs": [],
      "stateMutability": "nonpayable",
      "type": "function"
    },
    {
      "inputs": [
        {
          "internalType": "address",
          "name": "to",
          "type": "address"
        },
        {
          "internalType": "address",
          "name": "token",
          "type": "address"
        },
        {
          "internalType": "uint256",
          "name": "amount",
          "type": "uint256"
        }
      ],
      "name": "escapeERC20",
      "outputs": [],
      "stateMutability": "nonpayable",
      "type": "function"
    },
    {
      "inputs": [
        {
          "internalType": "address",
          "name": "to",
          "type": "address"
        },
        {
          "internalType": "address",
          "name": "token",
          "type": "address"
        },
        {
          "internalType": "uint256",
          "name": "tokenId",
          "type": "uint256"
        }
      ],
      "name": "escapeERC721",
      "outputs": [],
      "stateMutability": "nonpayable",
      "type": "function"
    },
    {
      "inputs": [],
      "name": "factory",
      "outputs": [
        {
          "internalType": "contract IUTBFactory",
          "name": "",
          "type": "address"
        }
      ],
      "stateMutability": "view",
      "type": "function"
    },
    {
      "inputs": [
        {
          "internalType": "uint256",
          "name": "assetId",
          "type": "uint256"
        }
      ],
      "name": "fee",
      "outputs": [
        {
          "internalType": "uint256",
          "name": "",
          "type": "uint256"
        }
      ],
      "stateMutability": "view",
      "type": "function"
    },
    {
      "inputs": [
        {
          "internalType": "uint256",
          "name": "assetId",
          "type": "uint256"
        }
      ],
      "name": "feeOrigin",
      "outputs": [
        {
          "internalType": "uint256",
          "name": "",
          "type": "uint256"
        }
      ],
      "stateMutability": "view",
      "type": "function"
    },
    {
      "inputs": [
        {
          "internalType": "uint256",
          "name": "assetId",
          "type": "uint256"
        }
      ],
      "name": "feePoint",
      "outputs": [
        {
          "internalType": "uint256",
          "name": "",
          "type": "uint256"
        }
      ],
      "stateMutability": "view",
      "type": "function"
    },
    {
      "inputs": [
        {
          "internalType": "uint256",
          "name": "assetId",
          "type": "uint256"
        }
      ],
      "name": "feePointOrigin",
      "outputs": [
        {
          "internalType": "uint256",
          "name": "",
          "type": "uint256"
        }
      ],
      "stateMutability": "view",
      "type": "function"
    },
    {
      "inputs": [
        {
          "internalType": "uint256",
          "name": "tokenId",
          "type": "uint256"
        }
      ],
      "name": "getApproved",
      "outputs": [
        {
          "internalType": "address",
          "name": "",
          "type": "address"
        }
      ],
      "stateMutability": "view",
      "type": "function"
    },
    {
      "inputs": [
        {
          "internalType": "uint256",
          "name": "tokenId",
          "type": "uint256"
        }
      ],
      "name": "getAsset",
      "outputs": [
        {
          "internalType": "uint256",
          "name": "asset",
          "type": "uint256"
        }
      ],
      "stateMutability": "view",
      "type": "function"
    },
    {
      "inputs": [],
      "name": "getFactory",
      "outputs": [
        {
          "internalType": "address",
          "name": "",
          "type": "address"
        }
      ],
      "stateMutability": "view",
      "type": "function"
    },
    {
      "inputs": [
        {
          "internalType": "address",
          "name": "owner",
          "type": "address"
        },
        {
          "internalType": "address",
          "name": "operator",
          "type": "address"
        }
      ],
      "name": "isApprovedForAll",
      "outputs": [
        {
          "internalType": "bool",
          "name": "",
          "type": "bool"
        }
      ],
      "stateMutability": "view",
      "type": "function"
    },
    {
      "inputs": [],
      "name": "lockedETH",
      "outputs": [
        {
          "internalType": "uint256",
          "name": "",
          "type": "uint256"
        }
      ],
      "stateMutability": "view",
      "type": "function"
    },
    {
      "inputs": [],
      "name": "lockedPoints",
      "outputs": [
        {
          "internalType": "uint256",
          "name": "",
          "type": "uint256"
        }
      ],
      "stateMutability": "view",
      "type": "function"
    },
    {
      "inputs": [
        {
          "internalType": "uint256",
          "name": "",
          "type": "uint256"
        }
      ],
      "name": "mintWithDiscounts",
      "outputs": [
        {
          "internalType": "uint256",
          "name": "",
          "type": "uint256"
        }
      ],
      "stateMutability": "view",
      "type": "function"
    },
    {
      "inputs": [
        {
          "internalType": "uint256",
          "name": "",
          "type": "uint256"
        }
      ],
      "name": "mintWithPoints",
      "outputs": [
        {
          "internalType": "uint256",
          "name": "",
          "type": "uint256"
        }
      ],
      "stateMutability": "view",
      "type": "function"
    },
    {
      "inputs": [
        {
          "internalType": "uint256",
          "name": "",
          "type": "uint256"
        }
      ],
      "name": "mints",
      "outputs": [
        {
          "internalType": "uint256",
          "name": "",
          "type": "uint256"
        }
      ],
      "stateMutability": "view",
      "type": "function"
    },
    {
      "inputs": [],
      "name": "name",
      "outputs": [
        {
          "internalType": "string",
          "name": "",
          "type": "string"
        }
      ],
      "stateMutability": "view",
      "type": "function"
    },
    {
      "inputs": [
        {
          "internalType": "address",
          "name": "",
          "type": "address"
        },
        {
          "internalType": "address",
          "name": "",
          "type": "address"
        },
        {
          "internalType": "uint256[]",
          "name": "",
          "type": "uint256[]"
        },
        {
          "internalType": "uint256[]",
          "name": "",
          "type": "uint256[]"
        },
        {
          "internalType": "bytes",
          "name": "",
          "type": "bytes"
        }
      ],
      "name": "onERC1155BatchReceived",
      "outputs": [
        {
          "internalType": "bytes4",
          "name": "",
          "type": "bytes4"
        }
      ],
      "stateMutability": "nonpayable",
      "type": "function"
    },
    {
      "inputs": [
        {
          "internalType": "address",
          "name": "",
          "type": "address"
        },
        {
          "internalType": "address",
          "name": "",
          "type": "address"
        },
        {
          "internalType": "uint256",
          "name": "",
          "type": "uint256"
        },
        {
          "internalType": "uint256",
          "name": "",
          "type": "uint256"
        },
        {
          "internalType": "bytes",
          "name": "",
          "type": "bytes"
        }
      ],
      "name": "onERC1155Received",
      "outputs": [
        {
          "internalType": "bytes4",
          "name": "",
          "type": "bytes4"
        }
      ],
      "stateMutability": "pure",
      "type": "function"
    },
    {
      "inputs": [
        {
          "internalType": "uint256",
          "name": "tokenId",
          "type": "uint256"
        }
      ],
      "name": "open",
      "outputs": [],
      "stateMutability": "nonpayable",
      "type": "function"
    },
    {
      "inputs": [],
      "name": "owner",
      "outputs": [
        {
          "internalType": "address",
          "name": "",
          "type": "address"
        }
      ],
      "stateMutability": "view",
      "type": "function"
    },
    {
      "inputs": [
        {
          "internalType": "uint256",
          "name": "tokenId",
          "type": "uint256"
        }
      ],
      "name": "ownerOf",
      "outputs": [
        {
          "internalType": "address",
          "name": "",
          "type": "address"
        }
      ],
      "stateMutability": "view",
      "type": "function"
    },
    {
      "inputs": [],
      "name": "point",
      "outputs": [
        {
          "internalType": "contract IERC20Token",
          "name": "token",
          "type": "address"
        }
      ],
      "stateMutability": "view",
      "type": "function"
    },
    {
      "inputs": [],
      "name": "pointPercent",
      "outputs": [
        {
          "internalType": "uint8",
          "name": "",
          "type": "uint8"
        }
      ],
      "stateMutability": "view",
      "type": "function"
    },
    {
      "inputs": [
        {
          "internalType": "address",
          "name": "author",
          "type": "address"
        },
        {
          "internalType": "string",
          "name": "asset",
          "type": "string"
        },
        {
          "internalType": "uint256",
          "name": "price",
          "type": "uint256"
        },
        {
          "internalType": "uint256",
          "name": "limit",
          "type": "uint256"
        }
      ],
      "name": "registerAsset",
      "outputs": [],
      "stateMutability": "nonpayable",
      "type": "function"
    },
    {
      "inputs": [
        {
          "internalType": "uint256",
          "name": "assetId",
          "type": "uint256"
        },
        {
          "internalType": "uint256",
          "name": "discount_",
          "type": "uint256"
        }
      ],
      "name": "registerDiscount",
      "outputs": [],
      "stateMutability": "nonpayable",
      "type": "function"
    },
    {
      "inputs": [],
      "name": "renewPercent",
      "outputs": [
        {
          "internalType": "uint8",
          "name": "",
          "type": "uint8"
        }
      ],
      "stateMutability": "view",
      "type": "function"
    },
    {
      "inputs": [],
      "name": "renewable",
      "outputs": [
        {
          "internalType": "bool",
          "name": "",
          "type": "bool"
        }
      ],
      "stateMutability": "view",
      "type": "function"
    },
    {
      "inputs": [],
      "name": "renounceOwnership",
      "outputs": [],
      "stateMutability": "nonpayable",
      "type": "function"
    },
    {
      "inputs": [
        {
          "internalType": "uint256",
          "name": "assetId",
          "type": "uint256"
        }
      ],
      "name": "reward",
      "outputs": [
        {
          "internalType": "uint256",
          "name": "",
          "type": "uint256"
        }
      ],
      "stateMutability": "view",
      "type": "function"
    },
    {
      "inputs": [],
      "name": "rewardPercent",
      "outputs": [
        {
          "internalType": "uint8",
          "name": "",
          "type": "uint8"
        }
      ],
      "stateMutability": "view",
      "type": "function"
    },
    {
      "inputs": [
        {
          "internalType": "address",
          "name": "author",
          "type": "address"
        }
      ],
      "name": "rewards",
      "outputs": [
        {
          "internalType": "uint256",
          "name": "",
          "type": "uint256"
        }
      ],
      "stateMutability": "view",
      "type": "function"
    },
    {
      "inputs": [
        {
          "internalType": "address",
          "name": "from",
          "type": "address"
        },
        {
          "internalType": "address",
          "name": "to",
          "type": "address"
        },
        {
          "internalType": "uint256",
          "name": "tokenId",
          "type": "uint256"
        }
      ],
      "name": "safeTransferFrom",
      "outputs": [],
      "stateMutability": "nonpayable",
      "type": "function"
    },
    {
      "inputs": [
        {
          "internalType": "address",
          "name": "from",
          "type": "address"
        },
        {
          "internalType": "address",
          "name": "to",
          "type": "address"
        },
        {
          "internalType": "uint256",
          "name": "tokenId",
          "type": "uint256"
        },
        {
          "internalType": "bytes",
          "name": "_data",
          "type": "bytes"
        }
      ],
      "name": "safeTransferFrom",
      "outputs": [],
      "stateMutability": "nonpayable",
      "type": "function"
    },
    {
      "inputs": [
        {
          "internalType": "address",
          "name": "operator",
          "type": "address"
        },
        {
          "internalType": "bool",
          "name": "approved",
          "type": "bool"
        }
      ],
      "name": "setApprovalForAll",
      "outputs": [],
      "stateMutability": "nonpayable",
      "type": "function"
    },
    {
      "inputs": [
        {
          "internalType": "address",
          "name": "_factory",
          "type": "address"
        }
      ],
      "name": "setFactory",
      "outputs": [],
      "stateMutability": "nonpayable",
      "type": "function"
    },
    {
      "inputs": [],
      "name": "states",
      "outputs": [
        {
          "internalType": "uint8",
          "name": "",
          "type": "uint8"
        }
      ],
      "stateMutability": "view",
      "type": "function"
    },
    {
      "inputs": [
        {
          "internalType": "bytes4",
          "name": "interfaceId",
          "type": "bytes4"
        }
      ],
      "name": "supportsInterface",
      "outputs": [
        {
          "internalType": "bool",
          "name": "",
          "type": "bool"
        }
      ],
      "stateMutability": "view",
      "type": "function"
    },
    {
      "inputs": [],
      "name": "symbol",
      "outputs": [
        {
          "internalType": "string",
          "name": "",
          "type": "string"
        }
      ],
      "stateMutability": "view",
      "type": "function"
    },
    {
      "inputs": [
        {
          "internalType": "uint256",
          "name": "",
          "type": "uint256"
        }
      ],
      "name": "tokenAssets",
      "outputs": [
        {
          "internalType": "uint256",
          "name": "",
          "type": "uint256"
        }
      ],
      "stateMutability": "view",
      "type": "function"
    },
    {
      "inputs": [
        {
          "internalType": "uint256",
          "name": "tokenId",
          "type": "uint256"
        }
      ],
      "name": "tokenState",
      "outputs": [
        {
          "internalType": "uint8",
          "name": "",
          "type": "uint8"
        }
      ],
      "stateMutability": "view",
      "type": "function"
    },
    {
      "inputs": [
        {
          "internalType": "uint256",
          "name": "tokenId",
          "type": "uint256"
        }
      ],
      "name": "tokenURI",
      "outputs": [
        {
          "internalType": "string",
          "name": "",
          "type": "string"
        }
      ],
      "stateMutability": "view",
      "type": "function"
    },
    {
      "inputs": [],
      "name": "totalAssets",
      "outputs": [
        {
          "internalType": "uint256",
          "name": "total",
          "type": "uint256"
        }
      ],
      "stateMutability": "view",
      "type": "function"
    },
    {
      "inputs": [
        {
          "internalType": "address",
          "name": "from",
          "type": "address"
        },
        {
          "internalType": "address",
          "name": "to",
          "type": "address"
        },
        {
          "internalType": "uint256",
          "name": "tokenId",
          "type": "uint256"
        }
      ],
      "name": "transferFrom",
      "outputs": [],
      "stateMutability": "nonpayable",
      "type": "function"
    },
    {
      "inputs": [
        {
          "internalType": "address",
          "name": "newOwner",
          "type": "address"
        }
      ],
      "name": "transferOwnership",
      "outputs": [],
      "stateMutability": "nonpayable",
      "type": "function"
    },
    {
      "inputs": [
        {
          "internalType": "uint256",
          "name": "tokenId",
          "type": "uint256"
        },
        {
          "internalType": "address",
          "name": "token",
          "type": "address"
        }
      ],
      "name": "viewERC1155Ids",
      "outputs": [
        {
          "components": [
            {
              "internalType": "uint256",
              "name": "tokenId",
              "type": "uint256"
            },
            {
              "internalType": "uint256",
              "name": "amount",
              "type": "uint256"
            }
          ],
          "internalType": "struct Vault.TkERC1155[]",
          "name": "amount",
          "type": "tuple[]"
        }
      ],
      "stateMutability": "view",
      "type": "function"
    },
    {
      "inputs": [
        {
          "internalType": "uint256",
          "name": "tokenId",
          "type": "uint256"
        }
      ],
      "name": "viewERC1155s",
      "outputs": [
        {
          "internalType": "address[]",
          "name": "tokens",
          "type": "address[]"
        }
      ],
      "stateMutability": "view",
      "type": "function"
    },
    {
      "inputs": [
        {
          "internalType": "uint256",
          "name": "tokenId",
          "type": "uint256"
        },
        {
          "internalType": "address",
          "name": "token",
          "type": "address"
        }
      ],
      "name": "viewERC20Amount",
      "outputs": [
        {
          "internalType": "uint256",
          "name": "amount",
          "type": "uint256"
        }
      ],
      "stateMutability": "view",
      "type": "function"
    },
    {
      "inputs": [
        {
          "internalType": "uint256",
          "name": "tokenId",
          "type": "uint256"
        }
      ],
      "name": "viewERC20s",
      "outputs": [
        {
          "internalType": "address[]",
          "name": "tokens",
          "type": "address[]"
        }
      ],
      "stateMutability": "view",
      "type": "function"
    },
    {
      "inputs": [
        {
          "internalType": "uint256",
          "name": "tokenId",
          "type": "uint256"
        },
        {
          "internalType": "address",
          "name": "token",
          "type": "address"
        }
      ],
      "name": "viewERC721Ids",
      "outputs": [
        {
          "internalType": "uint256[]",
          "name": "amount",
          "type": "uint256[]"
        }
      ],
      "stateMutability": "view",
      "type": "function"
    },
    {
      "inputs": [
        {
          "internalType": "uint256",
          "name": "tokenId",
          "type": "uint256"
        }
      ],
      "name": "viewERC721s",
      "outputs": [
        {
          "internalType": "address[]",
          "name": "tokens",
          "type": "address[]"
        }
      ],
      "stateMutability": "view",
      "type": "function"
    },
    {
      "inputs": [
        {
          "internalType": "uint256",
          "name": "tokenId",
          "type": "uint256"
        }
      ],
      "name": "viewETH",
      "outputs": [
        {
          "internalType": "uint256",
          "name": "amount",
          "type": "uint256"
        }
      ],
      "stateMutability": "view",
      "type": "function"
    },
    {
      "inputs": [],
      "name": "withdraw",
      "outputs": [],
      "stateMutability": "nonpayable",
      "type": "function"
    },
    {
      "inputs": [],
      "name": "withdrawPoints",
      "outputs": [],
      "stateMutability": "nonpayable",
      "type": "function"
    },
    {
      "inputs": [
        {
          "internalType": "uint256",
          "name": "tokenId",
          "type": "uint256"
        }
      ],
      "name": "wrap",
      "outputs": [],
      "stateMutability": "nonpayable",
      "type": "function"
    }
  ],
  "transactionHash": "0x794b51023715ec1e86dd26d10f8932ac114a550491b2632e2d69eefcb21ac55e",
  "args": [
    "https://ipfs.io/ipfs/QmcLFF8symBHiiNp9ZAC278axp1XFFrj1x7oMv769RU68v/"
  ],
  "solcInputHash": "502e51b79a3b2eac6a2ce83a540fac3f",
  "bytecode": "0x60806040523480156200001157600080fd5b50604051620062483803806200624883398101604081905262000034916200020f565b6040518060400160405280601581526020017f5574696c697479626961202d204769667420426f7800000000000000000000008152506040518060400160405280600a8152602001690aaa8848ed2cce884def60b31b8152508260036000848484848484848160009080519060200190620000b192919062000169565b508051620000c790600190602084019062000169565b50508351620000df9150600890602086019062000169565b506009805460ff90931660ff19938416179055600b80549115159190921617905550600091506200010f90503390565b600e80546001600160a01b0319166001600160a01b038316908117909155604051919250906000907f8be0079c531659141344cd1fd0a4f28419497f9722a3daafe3b4186f6b6457e0908290a35050505050505062000338565b8280546200017790620002e5565b90600052602060002090601f0160209004810192826200019b5760008555620001e6565b82601f10620001b657805160ff1916838001178555620001e6565b82800160010185558215620001e6579182015b82811115620001e6578251825591602001919060010190620001c9565b50620001f4929150620001f8565b5090565b5b80821115620001f45760008155600101620001f9565b6000602080838503121562000222578182fd5b82516001600160401b038082111562000239578384fd5b818501915085601f8301126200024d578384fd5b81518181111562000262576200026262000322565b604051601f8201601f19908116603f011681019083821181831017156200028d576200028d62000322565b816040528281528886848701011115620002a5578687fd5b8693505b82841015620002c85784840186015181850187015292850192620002a9565b82841115620002d957868684830101525b98975050505050505050565b600181811c90821680620002fa57607f821691505b602082108114156200031c57634e487b7160e01b600052602260045260246000fd5b50919050565b634e487b7160e01b600052604160045260246000fd5b615f0080620003486000396000f3fe6080604052600436106104685760003560e01c80638282d88c1161024a578063b6b55f2511610139578063db799904116100b6578063eac8f5b81161007a578063eac8f5b814610dde578063f23a6e6114610e0b578063f2fde38b14610e38578063f7087e0d14610e58578063f709c59d14610e8557600080fd5b8063db79990414610d3c578063e128467314610d4f578063e7fb74c714610d62578063e985e9c514610d75578063ea598cb014610dbe57600080fd5b8063c45a0155116100fd578063c45a015514610cac578063c87b56dd14610ccc578063cf35bdd014610cec578063d03020511461069a578063d37eedfe14610d1c57600080fd5b8063b6b55f2514610be7578063b88d4fde14610bfa578063bae6a69014610c1a578063bc197c8114610c47578063bfea733a14610c8c57600080fd5b8063999e4c95116101c7578063a66f90731161018b578063a66f907314610b3a578063a748fdf014610b5a578063a9fb763c14610b7a578063b0facab314610b9a578063b5d3542314610bba57600080fd5b8063999e4c9514610aa55780639f6cf0b114610ac5578063a22cb46514610ae5578063a361881514610b05578063a39ce20c14610b1a57600080fd5b80639495e6f81161020e5780639495e6f814610a0a57806395d89b4114610a2a578063966be72f14610a3f5780639745cc3d14610a5f578063975cbc3214610a8f57600080fd5b80638282d88c14610978578063881aba511461099857806388cc58e4146109ae5780638da5cb5b146109cc5780638fa10dc8146109ea57600080fd5b80633ccfd60b116103665780636696185d116102e35780636c0360eb116102a75780636c0360eb146108e75780636ef18867146108fc57806370a0823114610929578063715018a61461094957806382482f7c1461095e57600080fd5b80636696185d14610852578063685f8e5b14610872578063690e7c0914610892578063695fcae5146108b25780636ab638c5146108c757600080fd5b806357c8dbbf1161032a57806357c8dbbf146107a55780635882e195146107c55780635bb47808146107e55780636350b2c2146108055780636352211e1461083257600080fd5b80633ccfd60b146107045780633d8b738e1461071957806342842e0e146107395780634709384f1461075957806353f6fa251461077957600080fd5b80631b7dc10e116103f4578063326ccdf4116103b8578063326ccdf41461067a578063331f63c31461069a578063372500ab146106af578063379607f5146106c457806339b37ab0146106e457600080fd5b80631b7dc10e146105e457806323b872dd1461060457806329c250f11461062457806329ef19191461063e5780632ba9fcd51461066557600080fd5b8063081812fc1161043b578063081812fc146105035780630924f15d1461053b578063095ea7b3146105685780630b1d07de1461058a578063162033b6146105b757600080fd5b806301e1d1141461046d57806301ffc9a71461049157806306fdde03146104c15780630700037d146104e3575b600080fd5b34801561047957600080fd5b50600d545b6040519081526020015b60405180910390f35b34801561049d57600080fd5b506104b16104ac366004615714565b610ea5565b6040519015158152602001610488565b3480156104cd57600080fd5b506104d6610ef7565b6040516104889190615a58565b3480156104ef57600080fd5b5061047e6104fe366004615381565b610f89565b34801561050f57600080fd5b5061052361051e36600461574c565b611050565b6040516001600160a01b039091168152602001610488565b34801561054757600080fd5b5061047e61055636600461574c565b601f6020526000908152604090205481565b34801561057457600080fd5b506105886105833660046156cd565b6110ea565b005b34801561059657600080fd5b5061047e6105a536600461574c565b6000908152601a602052604090205490565b3480156105c357600080fd5b506105d76105d236600461574c565b611200565b6040516104889190615984565b3480156105f057600080fd5b506105886105ff3660046157c6565b611234565b34801561061057600080fd5b5061058861061f36600461549b565b61124f565b34801561063057600080fd5b50600b546104b19060ff1681565b34801561064a57600080fd5b50610653600a81565b60405160ff9091168152602001610488565b34801561067157600080fd5b50610523611280565b34801561068657600080fd5b5061047e61069536600461577c565b611302565b3480156106a657600080fd5b50610653601481565b3480156106bb57600080fd5b506105886113e3565b3480156106d057600080fd5b506105886106df36600461574c565b6115b1565b3480156106f057600080fd5b5061047e6106ff36600461574c565b611755565b34801561071057600080fd5b506105886117a1565b34801561072557600080fd5b5061047e61073436600461574c565b6119f7565b34801561074557600080fd5b5061058861075436600461549b565b611ab9565b34801561076557600080fd5b5061058861077436600461574c565b611ad4565b34801561078557600080fd5b5061047e61079436600461574c565b602080526000908152604090205481565b3480156107b157600080fd5b506105886107c03660046157c6565b611b53565b3480156107d157600080fd5b506105886107e03660046157a0565b611b9c565b3480156107f157600080fd5b50610588610800366004615381565b611be4565b34801561081157600080fd5b5061047e61082036600461574c565b601e6020526000908152604090205481565b34801561083e57600080fd5b5061052361084d36600461574c565b611dad565b34801561085e57600080fd5b5061058861086d3660046157a0565b611e24565b34801561087e57600080fd5b506105d761088d36600461574c565b611e38565b34801561089e57600080fd5b506105886108ad36600461574c565b611e67565b3480156108be57600080fd5b50610653603281565b3480156108d357600080fd5b5061047e6108e236600461574c565b611f87565b3480156108f357600080fd5b506104d6611fbc565b34801561090857600080fd5b5061091c61091736600461577c565b61204a565b6040516104889190615a20565b34801561093557600080fd5b5061047e610944366004615381565b61207a565b34801561095557600080fd5b50610588612101565b34801561096a57600080fd5b506009546106539060ff1681565b34801561098457600080fd5b5061058861099336600461549b565b612175565b3480156109a457600080fd5b5061047e600f5481565b3480156109ba57600080fd5b506019546001600160a01b0316610523565b3480156109d857600080fd5b50600e546001600160a01b0316610523565b3480156109f657600080fd5b50610588610a05366004615545565b6122c3565b348015610a1657600080fd5b5061047e610a2536600461574c565b612413565b348015610a3657600080fd5b506104d66124f2565b348015610a4b57600080fd5b5061047e610a5a36600461577c565b612501565b348015610a6b57600080fd5b50610653610a7a36600461574c565b6000908152600a602052604090205460ff1690565b348015610a9b57600080fd5b5061047e60115481565b348015610ab157600080fd5b5061047e610ac03660046156cd565b612543565b348015610ad157600080fd5b5061047e610ae036600461574c565b612574565b348015610af157600080fd5b50610588610b0036600461562f565b6125b0565b348015610b1157600080fd5b50610588612675565b348015610b2657600080fd5b50610588610b353660046157ed565b6129a9565b348015610b4657600080fd5b5061047e610b5536600461574c565b612b13565b348015610b6657600080fd5b50610588610b7536600461565c565b612ba4565b348015610b8657600080fd5b5061047e610b9536600461574c565b612dff565b348015610ba657600080fd5b50610588610bb53660046157a0565b612f04565b348015610bc657600080fd5b50610bda610bd536600461577c565b612f4c565b60405161048891906159d1565b610588610bf536600461574c565b612f7c565b348015610c0657600080fd5b50610588610c153660046154db565b612fc2565b348015610c2657600080fd5b5061047e610c3536600461574c565b601a6020526000908152604090205481565b348015610c5357600080fd5b50610c73610c623660046153f1565b63f23a6e6160e01b95945050505050565b6040516001600160e01b03199091168152602001610488565b348015610c9857600080fd5b50610588610ca736600461549b565b612ff4565b348015610cb857600080fd5b50601954610523906001600160a01b031681565b348015610cd857600080fd5b506104d6610ce736600461574c565b613125565b348015610cf857600080fd5b50610d0c610d0736600461574c565b613176565b6040516104889493929190615a6b565b348015610d2857600080fd5b50610588610d373660046157a0565b61324a565b61047e610d4a36600461577c565b613255565b610588610d5d36600461574c565b613371565b61047e610d7036600461574c565b613383565b348015610d8157600080fd5b506104b1610d903660046153b9565b6001600160a01b03918216600090815260056020908152604080832093909416825291909152205460ff1690565b348015610dca57600080fd5b50610588610dd936600461574c565b61349f565b348015610dea57600080fd5b5061047e610df936600461574c565b6000908152600c602052604090205490565b348015610e1757600080fd5b50610c73610e2636600461558a565b63f23a6e6160e01b9695505050505050565b348015610e4457600080fd5b50610588610e53366004615381565b613537565b348015610e6457600080fd5b5061047e610e7336600461574c565b600c6020526000908152604090205481565b348015610e9157600080fd5b506105d7610ea036600461574c565b613622565b60006001600160e01b031982166380ac58cd60e01b1480610ed657506001600160e01b03198216635b5e139f60e01b145b80610ef157506301ffc9a760e01b6001600160e01b03198316145b92915050565b606060008054610f0690615deb565b80601f0160208091040260200160405190810160405280929190818152602001828054610f3290615deb565b8015610f7f5780601f10610f5457610100808354040283529160200191610f7f565b820191906000526020600020905b815481529060010190602001808311610f6257829003601f168201915b5050505050905090565b6001600160a01b0381166000908152601b6020908152604080832080548251818502810185019093528083528493830182828015610fe657602002820191906000526020600020905b815481526020019060010190808311610fd2575b505050505090506000805b82518110156110485761102a83828151811061101d57634e487b7160e01b600052603260045260246000fd5b6020026020010151612dff565b6110349083615d3a565b91508061104081615e20565b915050610ff1565b509392505050565b6000818152600260205260408120546001600160a01b03166110ce5760405162461bcd60e51b815260206004820152602c60248201527f4552433732313a20617070726f76656420717565727920666f72206e6f6e657860448201526b34b9ba32b73a103a37b5b2b760a11b60648201526084015b60405180910390fd5b506000908152600460205260409020546001600160a01b031690565b60006110f582611dad565b9050806001600160a01b0316836001600160a01b031614156111635760405162461bcd60e51b815260206004820152602160248201527f4552433732313a20617070726f76616c20746f2063757272656e74206f776e656044820152603960f91b60648201526084016110c5565b336001600160a01b038216148061117f575061117f8133610d90565b6111f15760405162461bcd60e51b815260206004820152603860248201527f4552433732313a20617070726f76652063616c6c6572206973206e6f74206f7760448201527f6e6572206e6f7220617070726f76656420666f7220616c6c000000000000000060648201526084016110c5565b6111fb8383613651565b505050565b6060600261121d836000908152600a602052604090205460ff1690565b60ff16141561122f57610ef1826136bf565b919050565b61124084848484611b53565b6112498461349f565b50505050565b611259338261372b565b6112755760405162461bcd60e51b81526004016110c590615bd0565b6111fb83838361381e565b601954604080516321df0da760e01b815290516000926001600160a01b0316916321df0da7916004808301926020929190829003018186803b1580156112c557600080fd5b505afa1580156112d9573d6000803e3d6000fd5b505050506040513d601f19601f820116820180604052508101906112fd919061539d565b905090565b60008261130e600d5490565b811061132c5760405162461bcd60e51b81526004016110c590615af5565b6064601460ff16600d838154811061135457634e487b7160e01b600052603260045260246000fd5b9060005260206000209060040201600301546113709190615d66565b61137a9190615d52565b6000828152601f6020526040902054106113d15760405162461bcd60e51b815260206004820152601860248201527746756c6c79206d696e746564207769746820706f696e747360401b60448201526064016110c5565b6113db83856139be565b949350505050565b336000818152601b602090815260408083208054825181850281018501909352808352919290919083018282801561143a57602002820191906000526020600020905b815481526020019060010190808311611426575b505050505090506000805b82518110156114eb57600061147384838151811061101d57634e487b7160e01b600052603260045260246000fd5b905080156114d85780601c60008685815181106114a057634e487b7160e01b600052603260045260246000fd5b6020026020010151815260200190815260200160002060008282546114c59190615d3a565b909155506114d590508184615d3a565b92505b50806114e381615e20565b915050611445565b50600081116115325760405162461bcd60e51b815260206004820152601360248201527214995dd85c99081a5b9cdd59999a58da595b9d606a1b60448201526064016110c5565b6040516001600160a01b0384169082156108fc029083906000818181858888f19350505050158015611568573d6000803e3d6000fd5b50604080516001600160a01b0385168152602081018390527ffc30cddea38e2bf4d6ea7d3f9ed3b6ad7f176419f4963bd81318067a4aee73fe91015b60405180910390a1505050565b806115bb600d5490565b81106115d95760405162461bcd60e51b81526004016110c590615af5565b336001600160a01b0316600d828154811061160457634e487b7160e01b600052603260045260246000fd5b60009182526020909120600160049092020101546001600160a01b03161461163e5760405162461bcd60e51b81526004016110c590615b1c565b600061164983612dff565b9050600081116116915760405162461bcd60e51b815260206004820152601360248201527214995dd85c99081a5b9cdd59999a58da595b9d606a1b60448201526064016110c5565b6000838152601c6020526040812080548392906116af908490615d3a565b9091555050600d8054849081106116d657634e487b7160e01b600052603260045260246000fd5b600091825260208220600160049092020101546040516001600160a01b039091169183156108fc02918491818181858888f1935050505015801561171e573d6000803e3d6000fd5b5060408051848152602081018390527f47b0878030426a9511b1cd915a0ac34bd29f33d4f846616b55847303ff8ebcbe91016115a4565b6000818152601a6020526040812054421015611798576064611778600a82615d9c565b60ff1661178484612574565b61178e9190615d66565b610ef19190615d52565b610ef182612574565b600e546001600160a01b031633146117cb5760405162461bcd60e51b81526004016110c590615b6e565b600f5447116117ec5760405162461bcd60e51b81526004016110c590615ba3565b6000600f54476117fc9190615d85565b9050601960009054906101000a90046001600160a01b03166001600160a01b0316638da5cb5b6040518163ffffffff1660e01b815260040160206040518083038186803b15801561184c57600080fd5b505afa158015611860573d6000803e3d6000fd5b505050506040513d601f19601f82011682018060405250810190611884919061539d565b6001600160a01b031661189f600e546001600160a01b031690565b6001600160a01b0316141561191a57601960009054906101000a90046001600160a01b03166001600160a01b0316639c0e7824826040518263ffffffff1660e01b81526004016000604051808303818588803b1580156118fe57600080fd5b505af1158015611912573d6000803e3d6000fd5b505050505050565b60006064611929836005615d66565b6119339190615d52565b905061193f8183615d85565b9150601960009054906101000a90046001600160a01b03166001600160a01b0316639c0e7824826040518263ffffffff1660e01b81526004016000604051808303818588803b15801561199157600080fd5b505af11580156119a5573d6000803e3d6000fd5b50505050506119bc600e546001600160a01b031690565b6001600160a01b03166108fc839081150290604051600060405180830381858888f193505050501580156111fb573d6000803e3d6000fd5b50565b600080611a02611280565b9050806001600160a01b03166318ebdced6040518163ffffffff1660e01b815260040160206040518083038186803b158015611a3d57600080fd5b505afa158015611a51573d6000803e3d6000fd5b505050506040513d601f19601f82011682018060405250810190611a759190615764565b600d8481548110611a9657634e487b7160e01b600052603260045260246000fd5b906000526020600020906004020160020154611ab29190615d52565b9392505050565b6111fb83838360405180602001604052806000815250612fc2565b803380611ae083611dad565b6001600160a01b031614611b065760405162461bcd60e51b81526004016110c590615b1c565b82600280611b23836000908152600a602052604090205460ff1690565b60ff1614611b435760405162461bcd60e51b81526004016110c590615b47565b611b4c85613bf8565b5050505050565b83600080611b70836000908152600a602052604090205460ff1690565b60ff1614611b905760405162461bcd60e51b81526004016110c590615b47565b61191286868686614442565b82600080611bb9836000908152600a602052604090205460ff1690565b60ff1614611bd95760405162461bcd60e51b81526004016110c590615b47565b611b4c8585856145cb565b600e546001600160a01b03163314611c0e5760405162461bcd60e51b81526004016110c590615b6e565b6001600160a01b03811615801590611c3457506019546001600160a01b03828116911614155b611c725760405162461bcd60e51b815260206004820152600f60248201526e119858dd1bdc9e481a5b9d985b1a59608a1b60448201526064016110c5565b6019546001600160a01b031615611cbc5760405162461bcd60e51b815260206004820152600e60248201526d466163746f72792065786973747360901b60448201526064016110c5565b601980546001600160a01b0319166001600160a01b038316908117909155604080516321df0da760e01b81529051611d6e92916321df0da7916004808301926020929190829003018186803b158015611d1457600080fd5b505afa158015611d28573d6000803e3d6000fd5b505050506040513d601f19601f82011682018060405250810190611d4c919061539d565b601080546001600160a01b0319166001600160a01b0392909216919091179055565b6040516001600160a01b03821681527f1edf3afd4ac789736e00d216cd88be164ddcef26a6eedcc30cdb0cb62f3741b19060200160405180910390a150565b6000818152600260205260408120546001600160a01b031680610ef15760405162461bcd60e51b815260206004820152602960248201527f4552433732313a206f776e657220717565727920666f72206e6f6e657869737460448201526832b73a103a37b5b2b760b91b60648201526084016110c5565b611e2f838383611b9c565b6111fb8361349f565b60606002611e55836000908152600a602052604090205460ff1690565b60ff16141561122f57610ef1826146ec565b803380611e7383611dad565b6001600160a01b031614611e995760405162461bcd60e51b81526004016110c590615b1c565b82600180611eb6836000908152600a602052604090205460ff1690565b60ff1614611ed65760405162461bcd60e51b81526004016110c590615b47565b611ee1856002614756565b6000858152600c6020526040812054606490600590611eff906119f7565b611f099190615d66565b611f139190615d52565b9050611f1d611280565b6040516340c10f1960e01b8152336004820152602481018390526001600160a01b0391909116906340c10f1990604401600060405180830381600087803b158015611f6757600080fd5b505af1158015611f7b573d6000803e3d6000fd5b50505050505050505050565b6000818152600a602052604081205460ff1660021415611fb4575060009081526012602052604090205490565b506000919050565b60088054611fc990615deb565b80601f0160208091040260200160405190810160405280929190818152602001828054611ff590615deb565b80156120425780601f1061201757610100808354040283529160200191612042565b820191906000526020600020905b81548152906001019060200180831161202557829003601f168201915b505050505081565b60606002612067846000908152600a602052604090205460ff1690565b60ff161415610ef157611ab283836147f8565b60006001600160a01b0382166120e55760405162461bcd60e51b815260206004820152602a60248201527f4552433732313a2062616c616e636520717565727920666f7220746865207a65604482015269726f206164647265737360b01b60648201526084016110c5565b506001600160a01b031660009081526003602052604090205490565b600e546001600160a01b0316331461212b5760405162461bcd60e51b81526004016110c590615b6e565b600e546040516000916001600160a01b0316907f8be0079c531659141344cd1fd0a4f28419497f9722a3daafe3b4186f6b6457e0908390a3600e80546001600160a01b0319169055565b600e546001600160a01b0316331461219f5760405162461bcd60e51b81526004016110c590615b6e565b60008111801561222557506040516370a0823160e01b81523060048201526001600160a01b038316906370a082319060240160206040518083038186803b1580156121e957600080fd5b505afa1580156121fd573d6000803e3d6000fd5b505050506040513d601f19601f820116820180604052508101906122219190615764565b8111155b6122415760405162461bcd60e51b81526004016110c590615ba3565b60405163a9059cbb60e01b81526001600160a01b0384811660048301526024820183905283169063a9059cbb90604401602060405180830381600087803b15801561228b57600080fd5b505af115801561229f573d6000803e3d6000fd5b505050506040513d601f19601f8201168201806040525081019061124991906156f8565b600e546001600160a01b031633146122ed5760405162461bcd60e51b81526004016110c590615b6e565b604051627eeac760e11b81523060048201526024810183905281906001600160a01b0385169062fdd58e9060440160206040518083038186803b15801561233357600080fd5b505afa158015612347573d6000803e3d6000fd5b505050506040513d601f19601f8201168201806040525081019061236b9190615764565b10156123895760405162461bcd60e51b81526004016110c590615c21565b600081116123a95760405162461bcd60e51b81526004016110c590615ba3565b604051637921219560e11b81526001600160a01b0384169063f242432a906123db90309088908790879060040161593f565b600060405180830381600087803b1580156123f557600080fd5b505af1158015612409573d6000803e3d6000fd5b5050505050505050565b60008161241f600d5490565b811061243d5760405162461bcd60e51b81526004016110c590615af5565b6064601460ff16600d838154811061246557634e487b7160e01b600052603260045260246000fd5b9060005260206000209060040201600301546124819190615d66565b61248b9190615d52565b6000828152601f6020526040902054106124e25760405162461bcd60e51b815260206004820152601860248201527746756c6c79206d696e746564207769746820706f696e747360401b60448201526064016110c5565b611ab233846139be565b50919050565b606060018054610f0690615deb565b6000828152600a602052604081205460ff1660021415610ef15760008381526014602090815260408083206001600160a01b0386168452909152902054611ab2565b601b602052816000526040600020818154811061255f57600080fd5b90600052602060002001600091509150505481565b6000600d828154811061259757634e487b7160e01b600052603260045260246000fd5b9060005260206000209060040201600201549050919050565b6001600160a01b0382163314156126095760405162461bcd60e51b815260206004820152601960248201527f4552433732313a20617070726f766520746f2063616c6c65720000000000000060448201526064016110c5565b3360008181526005602090815260408083206001600160a01b03871680855290835292819020805460ff191686151590811790915590519081529192917f17307eab39ab6107e8899845ad3d59bd9653f200f220920489ca2b5937696c31910160405180910390a35050565b600061267f611280565b60405163bcfee33560e01b81523060048201529091506001600160a01b0382169063bcfee3359060240160206040518083038186803b1580156126c157600080fd5b505afa1580156126d5573d6000803e3d6000fd5b505050506040513d601f19601f820116820180604052508101906126f991906156f8565b61273b5760405162461bcd60e51b8152602060048201526013602482015272141bda5b9d081d1bdad95b881b9bdd081cd95d606a1b60448201526064016110c5565b600e546001600160a01b031633146127655760405162461bcd60e51b81526004016110c590615b6e565b600061276f611280565b6011546040516370a0823160e01b8152306004820152919250906001600160a01b038316906370a082319060240160206040518083038186803b1580156127b557600080fd5b505afa1580156127c9573d6000803e3d6000fd5b505050506040513d601f19601f820116820180604052508101906127ed9190615764565b1161280a5760405162461bcd60e51b81526004016110c590615ba3565b6011546040516370a0823160e01b8152306004820152600091906001600160a01b038416906370a082319060240160206040518083038186803b15801561285057600080fd5b505afa158015612864573d6000803e3d6000fd5b505050506040513d601f19601f820116820180604052508101906128889190615764565b6128929190615d85565b905060006128a1600283615d52565b90506001600160a01b0383166342966c686128bd600285615d52565b6040518263ffffffff1660e01b81526004016128db91815260200190565b600060405180830381600087803b1580156128f557600080fd5b505af1158015612909573d6000803e3d6000fd5b5050505080826129199190615d85565b60405163a9059cbb60e01b81526001600160a01b038516600482018190526024820183905291935063a9059cbb90604401600060405180830381600087803b15801561296457600080fd5b505af1158015612978573d6000803e3d6000fd5b505060405163173865ad60e01b8152600481018590526001600160a01b038616925063173865ad91506024016123db565b816129b3600d5490565b81106129d15760405162461bcd60e51b81526004016110c590615af5565b336001600160a01b0316600d82815481106129fc57634e487b7160e01b600052603260045260246000fd5b60009182526020909120600160049092020101546001600160a01b031614612a365760405162461bcd60e51b81526004016110c590615b1c565b428211612a785760405162461bcd60e51b815260206004820152601060248201526f111a5cd8dbdd5b9d081a5b9d985b1a5960821b60448201526064016110c5565b6000838152601a6020526040902054421015612acb5760405162461bcd60e51b8152602060048201526012602482015271446973636f756e74656420616c726561647960701b60448201526064016110c5565b6000838152601a602090815260409182902084905581518581529081018490527f6e9df22cc825945ccdb219977832c3a93752e87bf6b8a9d778c260da50c5003291016115a4565b600080612b1e611280565b9050806001600160a01b03166318ebdced6040518163ffffffff1660e01b815260040160206040518083038186803b158015612b5957600080fd5b505afa158015612b6d573d6000803e3d6000fd5b505050506040513d601f19601f82011682018060405250810190612b919190615764565b612b9a84611755565b611ab29190615d52565b6019546001600160a01b03163314612bce5760405162461bcd60e51b81526004016110c590615b1c565b6001600160a01b038416612c155760405162461bcd60e51b815260206004820152600e60248201526d105d5d1a1bdc881a5b9d985b1a5960921b60448201526064016110c5565b6000835111612c365760405162461bcd60e51b81526004016110c590615af5565b60008211612c765760405162461bcd60e51b815260206004820152600d60248201526c141c9a58d9481a5b9d985b1a59609a1b60448201526064016110c5565b60008111612cb75760405162461bcd60e51b815260206004820152600e60248201526d105b5bdd5b9d081a5b9d985b1a5960921b60448201526064016110c5565b600d8054604080516080810182528681526001600160a01b0388166020808301919091529181018690526060810185905260018301845560009390935282518051929392600485027fd7b6990105719101dabeb77144f2a3385c8033acd3af97e9423a695e81ad1eb50192612d309284929101906151d4565b50602082810151600183810180546001600160a01b0319166001600160a01b03938416179055604080860151600286015560609095015160039094019390935588166000908152601b825292832080549283018155835290912001819055600d80547f923a49af502d9bd4cf973995aa9df36f8f5bacfb4a326065f76b7b2f5253bfb791839182908110612dd457634e487b7160e01b600052603260045260246000fd5b9060005260206000209060040201604051612df0929190615c48565b60405180910390a15050505050565b6000806064601460ff16600d8581548110612e2a57634e487b7160e01b600052603260045260246000fd5b906000526020600020906004020160020154601e600087815260200190815260200160002054612e5a9190615d66565b612e649190615d66565b612e6e9190615d52565b905060006064600a60ff16600d8681548110612e9a57634e487b7160e01b600052603260045260246000fd5b9060005260206000209060040201600201546020600088815260200190815260200160002054612eca9190615d66565b612ed49190615d66565b612ede9190615d52565b6000858152601c6020526040902054909150612efa8284615d85565b6113db9190615d85565b82600080612f21836000908152600a602052604090205460ff1690565b60ff1614612f415760405162461bcd60e51b81526004016110c590615b47565b611b4c85858561486c565b60606002612f69846000908152600a602052604090205460ff1690565b60ff161415610ef157611ab283836149fe565b80600080612f99836000908152600a602052604090205460ff1690565b60ff1614612fb95760405162461bcd60e51b81526004016110c590615b47565b6111fb83614a8f565b612fcc338361372b565b612fe85760405162461bcd60e51b81526004016110c590615bd0565b61124984848484614aee565b600e546001600160a01b0316331461301e5760405162461bcd60e51b81526004016110c590615b6e565b6040516331a9108f60e11b81526004810182905230906001600160a01b03841690636352211e9060240160206040518083038186803b15801561306057600080fd5b505afa158015613074573d6000803e3d6000fd5b505050506040513d601f19601f82011682018060405250810190613098919061539d565b6001600160a01b0316146130be5760405162461bcd60e51b81526004016110c590615c21565b6040516323b872dd60e01b81526001600160a01b038316906323b872dd906130ee903090879086906004016158de565b600060405180830381600087803b15801561310857600080fd5b505af115801561311c573d6000803e3d6000fd5b50505050505050565b6060600861313283614b21565b516000848152600a602052604090205461314e9060ff16614c60565b6040516020016131609392919061583a565b6040516020818303038152906040529050919050565b600d818154811061318657600080fd5b90600052602060002090600402016000915090508060000180546131a990615deb565b80601f01602080910402602001604051908101604052809291908181526020018280546131d590615deb565b80156132225780601f106131f757610100808354040283529160200191613222565b820191906000526020600020905b81548152906001019060200180831161320557829003601f168201915b505050506001830154600284015460039094015492936001600160a01b039091169290915084565b611e2f838383612f04565b600082613261600d5490565b811061327f5760405162461bcd60e51b81526004016110c590615af5565b600d81815481106132a057634e487b7160e01b600052603260045260246000fd5b6000918252602080832060036004909302019190910154838352601f8252604080842054601e909352909220546132d79190615d3a565b111561331c5760405162461bcd60e51b815260206004820152601460248201527346756c6c79206d696e74656420616c726561647960601b60448201526064016110c5565b61332584611755565b3410156133675760405162461bcd60e51b815260206004820152601060248201526f119959481a5b9cdd59999a58da595b9d60821b60448201526064016110c5565b6113db8484614d7a565b61337a81612f7c565b6119f48161349f565b60008161338f600d5490565b81106133ad5760405162461bcd60e51b81526004016110c590615af5565b600d81815481106133ce57634e487b7160e01b600052603260045260246000fd5b6000918252602080832060036004909302019190910154838352601f8252604080842054601e909352909220546134059190615d3a565b111561344a5760405162461bcd60e51b815260206004820152601460248201527346756c6c79206d696e74656420616c726561647960601b60448201526064016110c5565b61345383611755565b3410156134955760405162461bcd60e51b815260206004820152601060248201526f119959481a5b9cdd59999a58da595b9d60821b60448201526064016110c5565b611ab28333614d7a565b8033806134ab83611dad565b6001600160a01b0316146134d15760405162461bcd60e51b81526004016110c590615b1c565b826000806134ee836000908152600a602052604090205460ff1690565b60ff161461350e5760405162461bcd60e51b81526004016110c590615b47565b613519856001614756565b6000858152600c6020526040812054606490601490611eff906119f7565b600e546001600160a01b031633146135615760405162461bcd60e51b81526004016110c590615b6e565b6001600160a01b0381166135c65760405162461bcd60e51b815260206004820152602660248201527f4f776e61626c653a206e6577206f776e657220697320746865207a65726f206160448201526564647265737360d01b60648201526084016110c5565b600e546040516001600160a01b038084169216907f8be0079c531659141344cd1fd0a4f28419497f9722a3daafe3b4186f6b6457e090600090a3600e80546001600160a01b0319166001600160a01b0392909216919091179055565b6060600261363f836000908152600a602052604090205460ff1690565b60ff16141561122f57610ef182614ebc565b600081815260046020526040902080546001600160a01b0319166001600160a01b038416908117909155819061368682611dad565b6001600160a01b03167f8c5be1e5ebec7d5bd14f71427d1e84f3dd0314c0f7b2291e5b200ac8c7c3b92560405160405180910390a45050565b60008181526013602090815260409182902080548351818402810184019094528084526060939283018282801561371f57602002820191906000526020600020905b81546001600160a01b03168152600190910190602001808311613701575b50505050509050919050565b6000818152600260205260408120546001600160a01b03166137a45760405162461bcd60e51b815260206004820152602c60248201527f4552433732313a206f70657261746f7220717565727920666f72206e6f6e657860448201526b34b9ba32b73a103a37b5b2b760a11b60648201526084016110c5565b60006137af83611dad565b9050806001600160a01b0316846001600160a01b031614806137ea5750836001600160a01b03166137df84611050565b6001600160a01b0316145b806113db57506001600160a01b0380821660009081526005602090815260408083209388168352929052205460ff166113db565b826001600160a01b031661383182611dad565b6001600160a01b0316146138995760405162461bcd60e51b815260206004820152602960248201527f4552433732313a207472616e73666572206f6620746f6b656e2074686174206960448201526839903737ba1037bbb760b91b60648201526084016110c5565b6001600160a01b0382166138fb5760405162461bcd60e51b8152602060048201526024808201527f4552433732313a207472616e7366657220746f20746865207a65726f206164646044820152637265737360e01b60648201526084016110c5565b613906600082613651565b6001600160a01b038316600090815260036020526040812080546001929061392f908490615d85565b90915550506001600160a01b038216600090815260036020526040812080546001929061395d908490615d3a565b909155505060008181526002602052604080822080546001600160a01b0319166001600160a01b0386811691821790925591518493918716917fddf252ad1be2c89b69c2b068fc378daa952ba7f163c4a11628f55a4df523b3ef91a4505050565b6000806139c9611280565b60405163bcfee33560e01b81523060048201529091506001600160a01b0382169063bcfee3359060240160206040518083038186803b158015613a0b57600080fd5b505afa158015613a1f573d6000803e3d6000fd5b505050506040513d601f19601f82011682018060405250810190613a4391906156f8565b613a855760405162461bcd60e51b8152602060048201526013602482015272141bda5b9d081d1bdad95b881b9bdd081cd95d606a1b60448201526064016110c5565b6000613a8f611280565b9050613a9a84612b13565b6040516370a0823160e01b81523360048201526001600160a01b038316906370a082319060240160206040518083038186803b158015613ad957600080fd5b505afa158015613aed573d6000803e3d6000fd5b505050506040513d601f19601f82011682018060405250810190613b119190615764565b1015613b545760405162461bcd60e51b8152602060048201526012602482015271141bda5b9d081a5b9cdd59999a58da595b9d60721b60448201526064016110c5565b806001600160a01b03166323b872dd3330613b6e88612b13565b6040518463ffffffff1660e01b8152600401613b8c939291906158de565b600060405180830381600087803b158015613ba657600080fd5b505af1158015613bba573d6000803e3d6000fd5b5050506000858152601f60205260408120805460019350909190613bdf908490615d3a565b90915550613bef90508585614f26565b95945050505050565b60008181526012602052604090205415613c7e57600081815260126020526040812054600f805491929091613c2e908490615d85565b9091555050600081815260126020526040808220549051339282156108fc02929190818181858888f19350505050158015613c6d573d6000803e3d6000fd5b506000818152601260205260408120555b60008181526013602052604090205415613f2d576000818152601460205260408120905b600083815260136020526040902054811015613f1357601054600084815260136020526040902080546001600160a01b039092169183908110613cf557634e487b7160e01b600052603260045260246000fd5b6000918252602090912001546001600160a01b03161415613d8057600083815260136020526040812080548492919084908110613d4257634e487b7160e01b600052603260045260246000fd5b60009182526020808320909101546001600160a01b031683528201929092526040018120546011805491929091613d7a908490615d85565b90915550505b6000838152601360205260409020805482908110613dae57634e487b7160e01b600052603260045260246000fd5b600091825260208083209091015485835260139091526040822080546001600160a01b039092169263a9059cbb92339287929187908110613dff57634e487b7160e01b600052603260045260246000fd5b6000918252602080832091909101546001600160a01b039081168452908301939093526040918201902054905160e085901b6001600160e01b03191681529290911660048301526024820152604401602060405180830381600087803b158015613e6857600080fd5b505af1158015613e7c573d6000803e3d6000fd5b505050506040513d601f19601f82011682018060405250810190613ea091906156f8565b50600083815260146020908152604080832060139092528220805491929184908110613edc57634e487b7160e01b600052603260045260246000fd5b60009182526020808320909101546001600160a01b0316835282019290925260400181205580613f0b81615e20565b915050613ca2565b506000828152601360205260408120613f2b91615258565b505b60008181526015602052604090205415614150576000818152601660205260408120905b6000838152601560205260409020548110156141365760005b6000848152601560205260409020548110156140c3576000848152601560205260409020805483908110613fae57634e487b7160e01b600052603260045260246000fd5b9060005260206000200160009054906101000a90046001600160a01b03166001600160a01b03166323b872dd3033866000601560008b8152602001908152602001600020888154811061401157634e487b7160e01b600052603260045260246000fd5b60009182526020808320909101546001600160a01b03168352820192909252604001902080548690811061405557634e487b7160e01b600052603260045260246000fd5b90600052602060002001546040518463ffffffff1660e01b815260040161407e939291906158de565b600060405180830381600087803b15801561409857600080fd5b505af11580156140ac573d6000803e3d6000fd5b5050505080806140bb90615e20565b915050613f6a565b506000838152601460209081526040808320601590925282208054919291849081106140ff57634e487b7160e01b600052603260045260246000fd5b60009182526020808320909101546001600160a01b031683528201929092526040018120558061412e81615e20565b915050613f51565b50600082815260156020526040812061414e91615258565b505b600081815260176020526040902054156119f45760005b60008281526017602052604090205481101561442a5760005b6000838152601860209081526040808320601790925282208054919291859081106141bb57634e487b7160e01b600052603260045260246000fd5b60009182526020808320909101546001600160a01b031683528201929092526040019020548110156143b757600083815260176020526040902080548390811061421557634e487b7160e01b600052603260045260246000fd5b60009182526020808320909101548583526018825260408084206017909352832080546001600160a01b039092169363f242432a9330933393919291908990811061427057634e487b7160e01b600052603260045260246000fd5b60009182526020808320909101546001600160a01b0316835282019290925260400190208054869081106142b457634e487b7160e01b600052603260045260246000fd5b600091825260208083206002909202909101548983526018825260408084206017909352832080549193918a9081106142fd57634e487b7160e01b600052603260045260246000fd5b60009182526020808320909101546001600160a01b03168352820192909252604001902080548790811061434157634e487b7160e01b600052603260045260246000fd5b9060005260206000209060020201600101546040518563ffffffff1660e01b8152600401614372949392919061593f565b600060405180830381600087803b15801561438c57600080fd5b505af11580156143a0573d6000803e3d6000fd5b5050505080806143af90615e20565b915050614180565b506000828152601460209081526040808320601790925282208054919291849081106143f357634e487b7160e01b600052603260045260246000fd5b60009182526020808320909101546001600160a01b031683528201929092526040018120558061442281615e20565b915050614167565b5060008181526017602052604081206119f491615258565b6001600160a01b0383166144685760405162461bcd60e51b81526004016110c590615c21565b600081116144885760405162461bcd60e51b81526004016110c590615ba3565b604051637921219560e11b815233600480830191909152306024830152604482018490526064820183905260a0608483015260a4820152630307830360e41b60c48201526001600160a01b0384169063f242432a9060e401600060405180830381600087803b1580156144fa57600080fd5b505af115801561450e573d6000803e3d6000fd5b50505060008581526018602090815260408083206001600160a01b0388168452909152902054151590506145745760008481526017602090815260408220805460018101825590835291200180546001600160a01b0319166001600160a01b0385161790555b60009384526018602090815260408086206001600160a01b03909516865293815283852084518086019095529284528381019182528254600181810185559386529420925160029094029092019283559051910155565b6001600160a01b0382166145f15760405162461bcd60e51b81526004016110c590615c21565b6040516323b872dd60e01b81526001600160a01b038316906323b872dd90614621903390309086906004016158de565b600060405180830381600087803b15801561463b57600080fd5b505af115801561464f573d6000803e3d6000fd5b50505060008481526016602090815260408083206001600160a01b0387168452909152902054151590506146b55760008381526015602090815260408220805460018101825590835291200180546001600160a01b0319166001600160a01b0384161790555b60009283526016602090815260408085206001600160a01b0390941685529281529183208054600181018255908452919092200155565b60008181526017602090815260409182902080548351818402810184019094528084526060939283018282801561371f576020028201919060005260206000209081546001600160a01b031681526001909101906020018083116137015750505050509050919050565b60095460ff9081169082161061479e5760405162461bcd60e51b815260206004820152600d60248201526c496e76616c696420737461746560981b60448201526064016110c5565b6000828152600a6020908152604091829020805460ff191660ff85169081179091558251858152918201527f5f37cb0e663bb52ce92e7edf0e34cd00146463aea0dabf3dd721dbd522ec9858910160405180910390a15050565b60008281526016602090815260408083206001600160a01b038516845282529182902080548351818402810184019094528084526060939283018282801561485f57602002820191906000526020600020905b81548152602001906001019080831161484b575b5050505050905092915050565b6001600160a01b0382166148925760405162461bcd60e51b81526004016110c590615c21565b600081116148b25760405162461bcd60e51b81526004016110c590615ba3565b6040516323b872dd60e01b81526001600160a01b038316906323b872dd906148e2903390309086906004016158de565b602060405180830381600087803b1580156148fc57600080fd5b505af1158015614910573d6000803e3d6000fd5b505050506040513d601f19601f8201168201806040525081019061493491906156f8565b5060008381526014602090815260408083206001600160a01b03861684529091529020546149945760008381526013602090815260408220805460018101825590835291200180546001600160a01b0319166001600160a01b0384161790555b6010546001600160a01b03838116911614156149c25780601160008282546149bc9190615d3a565b90915550505b60008381526014602090815260408083206001600160a01b0386168452909152812080548392906149f4908490615d3a565b9091555050505050565b60008281526018602090815260408083206001600160a01b03851684528252808320805482518185028101850190935280835260609492939192909184015b82821015614a8357838290600052602060002090600202016040518060400160405290816000820154815260200160018201548152505081526020019060010190614a3d565b50505050905092915050565b60003411614aaf5760405162461bcd60e51b81526004016110c590615ba3565b60008181526012602052604081208054349290614acd908490615d3a565b9250508190555034600f6000828254614ae69190615d3a565b909155505050565b614af984848461381e565b614b0584848484614f85565b6112495760405162461bcd60e51b81526004016110c590615aa3565b614b5560405180608001604052806060815260200160006001600160a01b0316815260200160008152602001600081525090565b6000828152600c6020526040902054600d80549091908110614b8757634e487b7160e01b600052603260045260246000fd5b9060005260206000209060040201604051806080016040529081600082018054614bb090615deb565b80601f0160208091040260200160405190810160405280929190818152602001828054614bdc90615deb565b8015614c295780601f10614bfe57610100808354040283529160200191614c29565b820191906000526020600020905b815481529060010190602001808311614c0c57829003601f168201915b505050918352505060018201546001600160a01b031660208201526002820154604082015260039091015460609091015292915050565b606081614c845750506040805180820190915260018152600360fc1b602082015290565b8160005b8115614cae5780614c9881615e20565b9150614ca79050600a83615d52565b9150614c88565b60008167ffffffffffffffff811115614cd757634e487b7160e01b600052604160045260246000fd5b6040519080825280601f01601f191660200182016040528015614d01576020820181803683370190505b5090505b84156113db57614d16600183615d85565b9150614d23600a86615e3b565b614d2e906030615d3a565b60f81b818381518110614d5157634e487b7160e01b600052603260045260246000fd5b60200101906001600160f81b031916908160001a905350614d73600a86615d52565b9450614d05565b6000828152601e602052604081208054600191908390614d9b908490615d3a565b90915550506000838152601a6020526040902054421015614e4d576064614dc4600a6014615d9c565b60ff16600d8581548110614de857634e487b7160e01b600052603260045260246000fd5b906000526020600020906004020160020154614e049190615d66565b614e0e9190615d52565b600f6000828254614e1f9190615d3a565b909155505060008381526020805260408120805460019290614e42908490615d3a565b90915550614eb29050565b6064601460ff16600d8581548110614e7557634e487b7160e01b600052603260045260246000fd5b906000526020600020906004020160020154614e919190615d66565b614e9b9190615d52565b600f6000828254614eac9190615d3a565b90915550505b611ab28284614f26565b60008181526015602090815260409182902080548351818402810184019094528084526060939283018282801561371f576020028201919060005260206000209081546001600160a01b031681526001909101906020018083116137015750505050509050919050565b6000614f31600d5490565b8210614f4f5760405162461bcd60e51b81526004016110c590615af5565b614f5d600780546001019055565b6000614f6860075490565b6000818152600c602052604090208490559050611ab28482615092565b60006001600160a01b0384163b1561508757604051630a85bd0160e11b81526001600160a01b0385169063150b7a0290614fc9903390899088908890600401615902565b602060405180830381600087803b158015614fe357600080fd5b505af1925050508015615013575060408051601f3d908101601f1916820190925261501091810190615730565b60015b61506d573d808015615041576040519150601f19603f3d011682016040523d82523d6000602084013e615046565b606091505b5080516150655760405162461bcd60e51b81526004016110c590615aa3565b805181602001fd5b6001600160e01b031916630a85bd0160e11b1490506113db565b506001949350505050565b6001600160a01b0382166150e85760405162461bcd60e51b815260206004820181905260248201527f4552433732313a206d696e7420746f20746865207a65726f206164647265737360448201526064016110c5565b6000818152600260205260409020546001600160a01b03161561514d5760405162461bcd60e51b815260206004820152601c60248201527f4552433732313a20746f6b656e20616c7265616479206d696e7465640000000060448201526064016110c5565b6001600160a01b0382166000908152600360205260408120805460019290615176908490615d3a565b909155505060008181526002602052604080822080546001600160a01b0319166001600160a01b03861690811790915590518392907fddf252ad1be2c89b69c2b068fc378daa952ba7f163c4a11628f55a4df523b3ef908290a45050565b8280546151e090615deb565b90600052602060002090601f0160209004810192826152025760008555615248565b82601f1061521b57805160ff1916838001178555615248565b82800160010185558215615248579182015b8281111561524857825182559160200191906001019061522d565b50615254929150615272565b5090565b50805460008255906000526020600020908101906119f491905b5b808211156152545760008155600101615273565b600067ffffffffffffffff8311156152a1576152a1615e7b565b6152b4601f8401601f1916602001615d09565b90508281528383830111156152c857600080fd5b828260208301376000602084830101529392505050565b600082601f8301126152ef578081fd5b8135602067ffffffffffffffff82111561530b5761530b615e7b565b8160051b61531a828201615d09565b838152828101908684018388018501891015615334578687fd5b8693505b85841015615356578035835260019390930192918401918401615338565b50979650505050505050565b600082601f830112615372578081fd5b611ab283833560208501615287565b600060208284031215615392578081fd5b8135611ab281615e91565b6000602082840312156153ae578081fd5b8151611ab281615e91565b600080604083850312156153cb578081fd5b82356153d681615e91565b915060208301356153e681615e91565b809150509250929050565b600080600080600060a08688031215615408578081fd5b853561541381615e91565b9450602086013561542381615e91565b9350604086013567ffffffffffffffff8082111561543f578283fd5b61544b89838a016152df565b94506060880135915080821115615460578283fd5b61546c89838a016152df565b93506080880135915080821115615481578283fd5b5061548e88828901615362565b9150509295509295909350565b6000806000606084860312156154af578283fd5b83356154ba81615e91565b925060208401356154ca81615e91565b929592945050506040919091013590565b600080600080608085870312156154f0578384fd5b84356154fb81615e91565b9350602085013561550b81615e91565b925060408501359150606085013567ffffffffffffffff81111561552d578182fd5b61553987828801615362565b91505092959194509250565b6000806000806080858703121561555a578384fd5b843561556581615e91565b9350602085013561557581615e91565b93969395505050506040820135916060013590565b60008060008060008060a087890312156155a2578384fd5b86356155ad81615e91565b955060208701356155bd81615e91565b94506040870135935060608701359250608087013567ffffffffffffffff808211156155e7578283fd5b818901915089601f8301126155fa578283fd5b813581811115615608578384fd5b8a6020828501011115615619578384fd5b6020830194508093505050509295509295509295565b60008060408385031215615641578182fd5b823561564c81615e91565b915060208301356153e681615ea6565b60008060008060808587031215615671578182fd5b843561567c81615e91565b9350602085013567ffffffffffffffff811115615697578283fd5b8501601f810187136156a7578283fd5b6156b687823560208401615287565b949794965050505060408301359260600135919050565b600080604083850312156156df578182fd5b82356156ea81615e91565b946020939093013593505050565b600060208284031215615709578081fd5b8151611ab281615ea6565b600060208284031215615725578081fd5b8135611ab281615eb4565b600060208284031215615741578081fd5b8151611ab281615eb4565b60006020828403121561575d578081fd5b5035919050565b600060208284031215615775578081fd5b5051919050565b6000806040838503121561578e578182fd5b8235915060208301356153e681615e91565b6000806000606084860312156157b4578081fd5b8335925060208401356154ca81615e91565b600080600080608085870312156157db578182fd5b84359350602085013561557581615e91565b600080604083850312156157ff578182fd5b50508035926020909101359150565b60008151808452615826816020860160208601615dbf565b601f01601f19169290920160200192915050565b600080855461584881615deb565b6001828116801561586057600181146158715761589d565b60ff1984168752828701945061589d565b8986526020808720875b858110156158945781548a82015290840190820161587b565b50505082870194505b50875192506158b0838560208b01615dbf565b602f60f81b939092019283528551916158cf8382860160208a01615dbf565b91909201019695505050505050565b6001600160a01b039384168152919092166020820152604081019190915260600190565b6001600160a01b03858116825284166020820152604081018390526080606082018190526000906159359083018461580e565b9695505050505050565b6001600160a01b0394851681529290931660208301526040820152606081019190915260a060808201819052600490820152633078303160e01b60c082015260e00190565b6020808252825182820181905260009190848201906040850190845b818110156159c55783516001600160a01b0316835292840192918401916001016159a0565b50909695505050505050565b602080825282518282018190526000919060409081850190868401855b82811015615a13578151805185528601518685015292840192908501906001016159ee565b5091979650505050505050565b6020808252825182820181905260009190848201906040850190845b818110156159c557835183529284019291840191600101615a3c565b602081526000611ab2602083018461580e565b608081526000615a7e608083018761580e565b6001600160a01b03959095166020830152506040810192909252606090910152919050565b60208082526032908201527f4552433732313a207472616e7366657220746f206e6f6e20455243373231526560408201527131b2b4bb32b91034b6b83632b6b2b73a32b960711b606082015260800190565b6020808252600d908201526c105cdcd95d081a5b9d985b1a59609a1b604082015260600190565b60208082526011908201527014195c9b5a5cdcda5bdb8819195b9a5959607a1b604082015260600190565b6020808252600d908201526c14dd185d19481a5b9d985b1a59609a1b604082015260600190565b6020808252818101527f4f776e61626c653a2063616c6c6572206973206e6f7420746865206f776e6572604082015260600190565b602080825260139082015272105b5bdd5b9d081a5b9cdd59999a58da595b9d606a1b604082015260600190565b60208082526031908201527f4552433732313a207472616e736665722063616c6c6572206973206e6f74206f6040820152701ddb995c881b9bdc88185c1c1c9bdd9959607a1b606082015260800190565b6020808252600d908201526c151bdad95b881a5b9d985b1a59609a1b604082015260600190565b8281526000602060408184015260806040840152818454615c6881615deb565b8060c087015260e0600180841660008114615c8a5760018114615c9f57615cca565b60ff1985168984015261010089019550615cca565b898852868820885b85811015615cc25781548b8201860152908301908801615ca7565b8a0184019650505b508801546001600160a01b0316606088018190529450615ce992505050565b60028501546080850152600385015460a085015280925050509392505050565b604051601f8201601f1916810167ffffffffffffffff81118282101715615d3257615d32615e7b565b604052919050565b60008219821115615d4d57615d4d615e4f565b500190565b600082615d6157615d61615e65565b500490565b6000816000190483118215151615615d8057615d80615e4f565b500290565b600082821015615d9757615d97615e4f565b500390565b600060ff821660ff841680821015615db657615db6615e4f565b90039392505050565b60005b83811015615dda578181015183820152602001615dc2565b838111156112495750506000910152565b600181811c90821680615dff57607f821691505b602082108114156124ec57634e487b7160e01b600052602260045260246000fd5b6000600019821415615e3457615e34615e4f565b5060010190565b600082615e4a57615e4a615e65565b500690565b634e487b7160e01b600052601160045260246000fd5b634e487b7160e01b600052601260045260246000fd5b634e487b7160e01b600052604160045260246000fd5b6001600160a01b03811681146119f457600080fd5b80151581146119f457600080fd5b6001600160e01b0319811681146119f457600080fdfea26469706673582212205905e26da6d569cb40e3916ac6e99162b2590f7f0856de659683bad940a2b26a64736f6c63430008040033",
  "devdoc": {
    "kind": "dev",
    "methods": {
      "approve(address,uint256)": {
        "details": "See {IERC721-approve}."
      },
      "balanceOf(address)": {
        "details": "See {IERC721-balanceOf}."
      },
      "getApproved(uint256)": {
        "details": "See {IERC721-getApproved}."
      },
      "isApprovedForAll(address,address)": {
        "details": "See {IERC721-isApprovedForAll}."
      },
      "name()": {
        "details": "See {IERC721Metadata-name}."
      },
      "owner()": {
        "details": "Returns the address of the current owner."
      },
      "ownerOf(uint256)": {
        "details": "See {IERC721-ownerOf}."
      },
      "renounceOwnership()": {
        "details": "Leaves the contract without owner. It will not be possible to call `onlyOwner` functions anymore. Can only be called by the current owner. NOTE: Renouncing ownership will leave the contract without an owner, thereby removing any functionality that is only available to the owner."
      },
      "safeTransferFrom(address,address,uint256)": {
        "details": "See {IERC721-safeTransferFrom}."
      },
      "safeTransferFrom(address,address,uint256,bytes)": {
        "details": "See {IERC721-safeTransferFrom}."
      },
      "setApprovalForAll(address,bool)": {
        "details": "See {IERC721-setApprovalForAll}."
      },
      "supportsInterface(bytes4)": {
        "details": "See {IERC165-supportsInterface}."
      },
      "symbol()": {
        "details": "See {IERC721Metadata-symbol}."
      },
      "tokenURI(uint256)": {
        "details": "See {IERC721Metadata-tokenURI}."
      },
      "transferFrom(address,address,uint256)": {
        "details": "See {IERC721-transferFrom}."
      },
      "transferOwnership(address)": {
        "details": "Transfers ownership of the contract to a new account (`newOwner`). Can only be called by the current owner."
      }
    },
    "version": 1
  },
  "userdoc": {
    "kind": "user",
    "methods": {},
    "version": 1
  },
  "storageLayout": {
    "storage": [
      {
        "astId": 1956,
        "contract": "contracts/products/UTBGiftBox.sol:UTBGiftBox",
        "label": "_name",
        "offset": 0,
        "slot": "0",
        "type": "t_string_storage"
      },
      {
        "astId": 1958,
        "contract": "contracts/products/UTBGiftBox.sol:UTBGiftBox",
        "label": "_symbol",
        "offset": 0,
        "slot": "1",
        "type": "t_string_storage"
      },
      {
        "astId": 1962,
        "contract": "contracts/products/UTBGiftBox.sol:UTBGiftBox",
        "label": "_owners",
        "offset": 0,
        "slot": "2",
        "type": "t_mapping(t_uint256,t_address)"
      },
      {
        "astId": 1966,
        "contract": "contracts/products/UTBGiftBox.sol:UTBGiftBox",
        "label": "_balances",
        "offset": 0,
        "slot": "3",
        "type": "t_mapping(t_address,t_uint256)"
      },
      {
        "astId": 1970,
        "contract": "contracts/products/UTBGiftBox.sol:UTBGiftBox",
        "label": "_tokenApprovals",
        "offset": 0,
        "slot": "4",
        "type": "t_mapping(t_uint256,t_address)"
      },
      {
        "astId": 1976,
        "contract": "contracts/products/UTBGiftBox.sol:UTBGiftBox",
        "label": "_operatorApprovals",
        "offset": 0,
        "slot": "5",
        "type": "t_mapping(t_address,t_mapping(t_address,t_bool))"
      },
      {
        "astId": 2895,
        "contract": "contracts/products/UTBGiftBox.sol:UTBGiftBox",
        "label": "_tokenURIs",
        "offset": 0,
        "slot": "6",
        "type": "t_mapping(t_uint256,t_string_storage)"
      },
      {
        "astId": 5655,
        "contract": "contracts/products/UTBGiftBox.sol:UTBGiftBox",
        "label": "_tokenIds",
        "offset": 0,
        "slot": "7",
        "type": "t_struct(Counter)3362_storage"
      },
      {
        "astId": 5663,
        "contract": "contracts/products/UTBGiftBox.sol:UTBGiftBox",
        "label": "baseURI",
        "offset": 0,
        "slot": "8",
        "type": "t_string_storage"
      },
      {
        "astId": 5665,
        "contract": "contracts/products/UTBGiftBox.sol:UTBGiftBox",
        "label": "states",
        "offset": 0,
        "slot": "9",
        "type": "t_uint8"
      },
      {
        "astId": 5669,
        "contract": "contracts/products/UTBGiftBox.sol:UTBGiftBox",
        "label": "tokenStates",
        "offset": 0,
        "slot": "10",
        "type": "t_mapping(t_uint256,t_uint8)"
      },
      {
        "astId": 5671,
        "contract": "contracts/products/UTBGiftBox.sol:UTBGiftBox",
        "label": "renewable",
        "offset": 0,
        "slot": "11",
        "type": "t_bool"
      },
      {
        "astId": 5684,
        "contract": "contracts/products/UTBGiftBox.sol:UTBGiftBox",
        "label": "tokenAssets",
        "offset": 0,
        "slot": "12",
        "type": "t_mapping(t_uint256,t_uint256)"
      },
      {
        "astId": 5688,
        "contract": "contracts/products/UTBGiftBox.sol:UTBGiftBox",
        "label": "assets",
        "offset": 0,
        "slot": "13",
        "type": "t_array(t_struct(Asset)5680_storage)dyn_storage"
      },
      {
        "astId": 7,
        "contract": "contracts/products/UTBGiftBox.sol:UTBGiftBox",
        "label": "_owner",
        "offset": 0,
        "slot": "14",
        "type": "t_address"
      },
      {
        "astId": 7096,
        "contract": "contracts/products/UTBGiftBox.sol:UTBGiftBox",
        "label": "lockedETH",
        "offset": 0,
        "slot": "15",
        "type": "t_uint256"
      },
      {
        "astId": 7098,
        "contract": "contracts/products/UTBGiftBox.sol:UTBGiftBox",
        "label": "pointToken",
        "offset": 0,
        "slot": "16",
        "type": "t_address"
      },
      {
        "astId": 7100,
        "contract": "contracts/products/UTBGiftBox.sol:UTBGiftBox",
        "label": "lockedPoints",
        "offset": 0,
        "slot": "17",
        "type": "t_uint256"
      },
      {
        "astId": 7104,
        "contract": "contracts/products/UTBGiftBox.sol:UTBGiftBox",
        "label": "deposits",
        "offset": 0,
        "slot": "18",
        "type": "t_mapping(t_uint256,t_uint256)"
      },
      {
        "astId": 7109,
        "contract": "contracts/products/UTBGiftBox.sol:UTBGiftBox",
        "label": "tokenERC20s",
        "offset": 0,
        "slot": "19",
        "type": "t_mapping(t_uint256,t_array(t_address)dyn_storage)"
      },
      {
        "astId": 7115,
        "contract": "contracts/products/UTBGiftBox.sol:UTBGiftBox",
        "label": "depositERC20s",
        "offset": 0,
        "slot": "20",
        "type": "t_mapping(t_uint256,t_mapping(t_address,t_uint256))"
      },
      {
        "astId": 7120,
        "contract": "contracts/products/UTBGiftBox.sol:UTBGiftBox",
        "label": "tokenERC721s",
        "offset": 0,
        "slot": "21",
        "type": "t_mapping(t_uint256,t_array(t_address)dyn_storage)"
      },
      {
        "astId": 7127,
        "contract": "contracts/products/UTBGiftBox.sol:UTBGiftBox",
        "label": "depositERC721s",
        "offset": 0,
        "slot": "22",
        "type": "t_mapping(t_uint256,t_mapping(t_address,t_array(t_uint256)dyn_storage))"
      },
      {
        "astId": 7132,
        "contract": "contracts/products/UTBGiftBox.sol:UTBGiftBox",
        "label": "tokenERC1155s",
        "offset": 0,
        "slot": "23",
        "type": "t_mapping(t_uint256,t_array(t_address)dyn_storage)"
      },
      {
        "astId": 7140,
        "contract": "contracts/products/UTBGiftBox.sol:UTBGiftBox",
        "label": "depositERC1155s",
        "offset": 0,
        "slot": "24",
        "type": "t_mapping(t_uint256,t_mapping(t_address,t_array(t_struct(TkERC1155)7094_storage)dyn_storage))"
      },
      {
        "astId": 5982,
        "contract": "contracts/products/UTBGiftBox.sol:UTBGiftBox",
        "label": "factory",
        "offset": 0,
        "slot": "25",
        "type": "t_contract(IUTBFactory)8078"
      },
      {
        "astId": 5989,
        "contract": "contracts/products/UTBGiftBox.sol:UTBGiftBox",
        "label": "discounts",
        "offset": 0,
        "slot": "26",
        "type": "t_mapping(t_uint256,t_uint256)"
      },
      {
        "astId": 6000,
        "contract": "contracts/products/UTBGiftBox.sol:UTBGiftBox",
        "label": "authorAssets",
        "offset": 0,
        "slot": "27",
        "type": "t_mapping(t_address,t_array(t_uint256)dyn_storage)"
      },
      {
        "astId": 6004,
        "contract": "contracts/products/UTBGiftBox.sol:UTBGiftBox",
        "label": "rewardClaims",
        "offset": 0,
        "slot": "28",
        "type": "t_mapping(t_uint256,t_uint256)"
      },
      {
        "astId": 6008,
        "contract": "contracts/products/UTBGiftBox.sol:UTBGiftBox",
        "label": "reserveClaims",
        "offset": 0,
        "slot": "29",
        "type": "t_mapping(t_uint256,t_uint256)"
      },
      {
        "astId": 6015,
        "contract": "contracts/products/UTBGiftBox.sol:UTBGiftBox",
        "label": "mints",
        "offset": 0,
        "slot": "30",
        "type": "t_mapping(t_uint256,t_uint256)"
      },
      {
        "astId": 6019,
        "contract": "contracts/products/UTBGiftBox.sol:UTBGiftBox",
        "label": "mintWithPoints",
        "offset": 0,
        "slot": "31",
        "type": "t_mapping(t_uint256,t_uint256)"
      },
      {
        "astId": 6023,
        "contract": "contracts/products/UTBGiftBox.sol:UTBGiftBox",
        "label": "mintWithDiscounts",
        "offset": 0,
        "slot": "32",
        "type": "t_mapping(t_uint256,t_uint256)"
      }
    ],
    "types": {
      "t_address": {
        "encoding": "inplace",
        "label": "address",
        "numberOfBytes": "20"
      },
      "t_array(t_address)dyn_storage": {
        "base": "t_address",
        "encoding": "dynamic_array",
        "label": "address[]",
        "numberOfBytes": "32"
      },
      "t_array(t_struct(Asset)5680_storage)dyn_storage": {
        "base": "t_struct(Asset)5680_storage",
        "encoding": "dynamic_array",
        "label": "struct StatefulURI.Asset[]",
        "numberOfBytes": "32"
      },
      "t_array(t_struct(TkERC1155)7094_storage)dyn_storage": {
        "base": "t_struct(TkERC1155)7094_storage",
        "encoding": "dynamic_array",
        "label": "struct Vault.TkERC1155[]",
        "numberOfBytes": "32"
      },
      "t_array(t_uint256)dyn_storage": {
        "base": "t_uint256",
        "encoding": "dynamic_array",
        "label": "uint256[]",
        "numberOfBytes": "32"
      },
      "t_bool": {
        "encoding": "inplace",
        "label": "bool",
        "numberOfBytes": "1"
      },
      "t_contract(IUTBFactory)8078": {
        "encoding": "inplace",
        "label": "contract IUTBFactory",
        "numberOfBytes": "20"
      },
      "t_mapping(t_address,t_array(t_struct(TkERC1155)7094_storage)dyn_storage)": {
        "encoding": "mapping",
        "key": "t_address",
        "label": "mapping(address => struct Vault.TkERC1155[])",
        "numberOfBytes": "32",
        "value": "t_array(t_struct(TkERC1155)7094_storage)dyn_storage"
      },
      "t_mapping(t_address,t_array(t_uint256)dyn_storage)": {
        "encoding": "mapping",
        "key": "t_address",
        "label": "mapping(address => uint256[])",
        "numberOfBytes": "32",
        "value": "t_array(t_uint256)dyn_storage"
      },
      "t_mapping(t_address,t_bool)": {
        "encoding": "mapping",
        "key": "t_address",
        "label": "mapping(address => bool)",
        "numberOfBytes": "32",
        "value": "t_bool"
      },
      "t_mapping(t_address,t_mapping(t_address,t_bool))": {
        "encoding": "mapping",
        "key": "t_address",
        "label": "mapping(address => mapping(address => bool))",
        "numberOfBytes": "32",
        "value": "t_mapping(t_address,t_bool)"
      },
      "t_mapping(t_address,t_uint256)": {
        "encoding": "mapping",
        "key": "t_address",
        "label": "mapping(address => uint256)",
        "numberOfBytes": "32",
        "value": "t_uint256"
      },
      "t_mapping(t_uint256,t_address)": {
        "encoding": "mapping",
        "key": "t_uint256",
        "label": "mapping(uint256 => address)",
        "numberOfBytes": "32",
        "value": "t_address"
      },
      "t_mapping(t_uint256,t_array(t_address)dyn_storage)": {
        "encoding": "mapping",
        "key": "t_uint256",
        "label": "mapping(uint256 => address[])",
        "numberOfBytes": "32",
        "value": "t_array(t_address)dyn_storage"
      },
      "t_mapping(t_uint256,t_mapping(t_address,t_array(t_struct(TkERC1155)7094_storage)dyn_storage))": {
        "encoding": "mapping",
        "key": "t_uint256",
        "label": "mapping(uint256 => mapping(address => struct Vault.TkERC1155[]))",
        "numberOfBytes": "32",
        "value": "t_mapping(t_address,t_array(t_struct(TkERC1155)7094_storage)dyn_storage)"
      },
      "t_mapping(t_uint256,t_mapping(t_address,t_array(t_uint256)dyn_storage))": {
        "encoding": "mapping",
        "key": "t_uint256",
        "label": "mapping(uint256 => mapping(address => uint256[]))",
        "numberOfBytes": "32",
        "value": "t_mapping(t_address,t_array(t_uint256)dyn_storage)"
      },
      "t_mapping(t_uint256,t_mapping(t_address,t_uint256))": {
        "encoding": "mapping",
        "key": "t_uint256",
        "label": "mapping(uint256 => mapping(address => uint256))",
        "numberOfBytes": "32",
        "value": "t_mapping(t_address,t_uint256)"
      },
      "t_mapping(t_uint256,t_string_storage)": {
        "encoding": "mapping",
        "key": "t_uint256",
        "label": "mapping(uint256 => string)",
        "numberOfBytes": "32",
        "value": "t_string_storage"
      },
      "t_mapping(t_uint256,t_uint256)": {
        "encoding": "mapping",
        "key": "t_uint256",
        "label": "mapping(uint256 => uint256)",
        "numberOfBytes": "32",
        "value": "t_uint256"
      },
      "t_mapping(t_uint256,t_uint8)": {
        "encoding": "mapping",
        "key": "t_uint256",
        "label": "mapping(uint256 => uint8)",
        "numberOfBytes": "32",
        "value": "t_uint8"
      },
      "t_string_storage": {
        "encoding": "bytes",
        "label": "string",
        "numberOfBytes": "32"
      },
      "t_struct(Asset)5680_storage": {
        "encoding": "inplace",
        "label": "struct StatefulURI.Asset",
        "members": [
          {
            "astId": 5673,
            "contract": "contracts/products/UTBGiftBox.sol:UTBGiftBox",
            "label": "asset",
            "offset": 0,
            "slot": "0",
            "type": "t_string_storage"
          },
          {
            "astId": 5675,
            "contract": "contracts/products/UTBGiftBox.sol:UTBGiftBox",
            "label": "author",
            "offset": 0,
            "slot": "1",
            "type": "t_address"
          },
          {
            "astId": 5677,
            "contract": "contracts/products/UTBGiftBox.sol:UTBGiftBox",
            "label": "price",
            "offset": 0,
            "slot": "2",
            "type": "t_uint256"
          },
          {
            "astId": 5679,
            "contract": "contracts/products/UTBGiftBox.sol:UTBGiftBox",
            "label": "limit",
            "offset": 0,
            "slot": "3",
            "type": "t_uint256"
          }
        ],
        "numberOfBytes": "128"
      },
      "t_struct(Counter)3362_storage": {
        "encoding": "inplace",
        "label": "struct Counters.Counter",
        "members": [
          {
            "astId": 3361,
            "contract": "contracts/products/UTBGiftBox.sol:UTBGiftBox",
            "label": "_value",
            "offset": 0,
            "slot": "0",
            "type": "t_uint256"
          }
        ],
        "numberOfBytes": "32"
      },
      "t_struct(TkERC1155)7094_storage": {
        "encoding": "inplace",
        "label": "struct Vault.TkERC1155",
        "members": [
          {
            "astId": 7091,
            "contract": "contracts/products/UTBGiftBox.sol:UTBGiftBox",
            "label": "tokenId",
            "offset": 0,
            "slot": "0",
            "type": "t_uint256"
          },
          {
            "astId": 7093,
            "contract": "contracts/products/UTBGiftBox.sol:UTBGiftBox",
            "label": "amount",
            "offset": 0,
            "slot": "1",
            "type": "t_uint256"
          }
        ],
        "numberOfBytes": "64"
      },
      "t_uint256": {
        "encoding": "inplace",
        "label": "uint256",
        "numberOfBytes": "32"
      },
      "t_uint8": {
        "encoding": "inplace",
        "label": "uint8",
        "numberOfBytes": "1"
      }
    }
  }
}